:020000040000FA
:1000000080314328080008007E1480314E01961E7E
:100010000A280B2813288C1E0E280F281328873136
:10002000A02780314128161E162817281F280C1ECD
:100030001A281B281F2887317F27803141280B1F52
:10004000222823284128191E2628272832280F1E57
:100050002A282B28322841015B088A005A080A0006
:1000600080314128991E3528362841288F1E39288D
:100070003A284128410159088A0058080A0080316D
:1000800041287E10090080314528E83084008F30F7
:100090008500DC3086000030870007308F31DB2799
:1000A0008031F601F701F801F90162308400003077
:1000B00085000D308F31D5278031A030840000308D
:1000C00085002C308F31D5278031203084000130DD
:1000D000850020308F31D52780317E10400184315A
:1000E000682C4001E10087290330E30063084001E8
:1000F000E8008F318B2780318F31912780318F310C
:100100009A27803108304101E30063084001EC0088
:10011000AA29400167084101E30063084001E800A3
:10012000AA2940016103031D96289728AA290230B5
:100130004101E30063084001E800AA298F318B27C1
:1001400080318F31912780318F319A278031400162
:100150006103031DAC28AD28B92802304101E3003A
:1001600063084001E80003304101E30063084001F7
:10017000E70032306B02031CBE28BF28CD280430B4
:100180006106031DC428C528CD28EC01EC0A053002
:100190004101E30063084001E80032306B020318BC
:1001A000D228D328AA2904306106031DD828D928CB
:1001B000AA2904304101E30063084001E800AA29AC
:1001C00040016103031DE528E628F22802304101C1
:1001D000E30063084001E80004304101E3006308E4
:1001E0004001E70002306106031DF728F828AA291C
:1001F000EC01EC0A05304101E30063084001E8002E
:10020000AA298F318B2780318F31942780318F310C
:100210009A27803140016103031D0F2910291C29F1
:1002200002304101E30063084001E800053041016C
:10023000E30063084001E70004306106031D212943
:100240002229AA2905304101E30063084001EC009E
:1002500006304101E30063084001E800AA298F311C
:100260008E2780318F31912780318F3197278031D0
:1002700040016103031D3D293E294A290230410105
:10028000E30063084001E80006304101E300630831
:100290004001E70004306106031D4F295029AA29B7
:1002A000EC01EC0A07304101E30063084001E8007B
:1002B000AA298F318B2780318F31942780318F315C
:1002C0009727803140016103031D6729682974293C
:1002D00002304101E30063084001E80007304101BA
:1002E000E30063084001E70004306106031D79293B
:1002F0007A29AA2908304101E30063084001EC0093
:1003000003304101E30063084001E800AA296808BE
:100310004101E300E4016408003A03199029AA2985
:100320006308003A03197428013A03199128033A23
:1003300003198928013A03199E28073A0319E0286E
:10034000013A03190129033A03192F29013A031924
:100350005929AA29400168084101E30063084001C6
:10036000DA00610883313E23803108004001B90082
:10037000DC308600003087002E308400003085009D
:100380000730AB0016001A00AB0BC2292A08BB00CD
:100390002908BA003A083B04031DCF29D029D429E3
:1003A0002E30BA000030BB003B08F5003A08F400DC
:1003B0008631E726813175084001BF007408BE0010
:1003C000410149084001BD00410148084001BC000D
:1003D000BD1BEB29EC29002A3D08803AAB003F0801
:1003E000803A2B02031DF6293E083C02031CF92922
:1003F000FA29FB29002A40013D08BF003C08BE0045
:1004000040013F08BD003E08BC00410147084001D3
:10041000B800410146084001B70041014A18112ABD
:10042000122A332A242A20304001A1000030A200E1
:100430003908AB002B08A3008331942381310130AC
:100440004001BE070030BF3D40013F08803AAB008D
:100450003808803A2B02031D2F2A37083E02031C5E
:10046000322A332A132A4001B501B601532A40012A
:100470003A0884003B0885000008AB00AC012B085B
:10048000A1002C08A2003908AD002D08A30083317B
:100490009423813101304001BA070030BB3D013067
:1004A000B5070030B63D3608803AAB003D08803ACB
:1004B0002B02031D5D2A3C083502031C602A612AB9
:1004C000372A41014A1C652A662A872A782A203061
:1004D0004001A1000030A2003908AB002B08A300A6
:1004E00083319423813101304001BE070030BF3D8C
:1004F00040013F08803AAB003808803A2B02031DC8
:10050000832A37083E02031C862A872A672A40016D
:100510003F08AA003E08A90008004001C9004008A1
:1005200086008701403FC200413FC300420884006B
:10053000430885001200253A031D9F2AA02A1A2B82
:100540004008860087010130810741310318810A84
:100550004101C601C701CA01CB01FF30C800FF300D
:10056000C9004001400886008701403FC200413F6A
:10057000C30042088400430885001200733A031D3B
:10058000C22AC32AE52A4008860087010130810774
:1005900041310318810A410886008701010884005F
:1005A000850102308107003FC700013FC8004808AD
:1005B000AA004708A90049088131B62182314001CB
:1005C0002A08C1002908C0003D2B40088600870189
:1005D000403FC200413FC3004208840043088500F9
:1005E0001200253A031DF52AF62A0F2B4008860033
:1005F00087010130810741310318810A2530A100AC
:100600000030A2004908C2004208A30083319423AD
:10061000823101304001C0000030C1003D2B400854
:10062000860087010130810741310318810AC0012A
:10063000C1013D2B400886008701403FC200413F79
:10064000C30042088400430885000008C400C501B7
:100650004408A1004508A2004908C6004608A300B6
:1006600083319423823140014008860087010130A4
:10067000810741310318810A092B08004001E0007D
:1006800060086A06031D452B462B4C2B5A08690649
:1006900003194B2B4C2B932B6008031D502B512B14
:1006A000572B5A0869060319562B572B8A2B6008BB
:1006B00003195B2B5C2B6C2B6008DB00DC01DB354A
:1006C000DC0DF1305B07840087305C3D8500003F26
:1006D000DE00013FDF00702BD830DE008730DF0006
:1006E000CD30D2008730D3005F08D5005E08D4003B
:1006F0005A08DB00DC01DB35DC0D90305B07840041
:1007000087305C3D8500003FD600013FD700873130
:100710005C27833140015A08DB005B08E900600870
:10072000DB005B08EA000800400123080319992B4D
:100730009A2B9F2B2308031D9E2B9F2BA42B210854
:100740008F31E1278331D42B2308033E86008701B4
:10075000160001040319AD2BAE2BCB2B2308033E4F
:1007600086008701403FA400413FA500230A860080
:100770008701403FA600413FA7002708803AA80014
:100780002508803A2802031DC72B240826020318D7
:10079000CA2BCB2BD42B4001230A860087010130C2
:1007A000810741310318810A40012108A400A501F5
:1007B0002408A1002508A200080001304001E2073A
:1007C0000030E33D0030E43D0030E53D41014008AC
:1007D00040016202F000410141084001633BF10029
:1007E000410142084001643BF200410143084001DD
:1007F000653BF3007308031D082C7208031D082CC9
:10080000E93070020330713B031C072C082C252CA7
:10081000400165084101C300400164084101C20074
:10082000400163084101C100400162084101C0006C
:100830004001E601E60A0130EC02031D202C212CC8
:10084000252C0430F0007008E600080040019601F5
:1008500097019801FF309100FF3092000E30930015
:10086000FD307E01CE00FF30C3003F30B800E5010F
:10087000C401B901CF01BA01C501D001FF30BB00ED
:10088000FF30C600FF30D100FF30BC00FF30C70092
:10089000FF30D200E8013F13BF133E17BE173D13D0
:1008A000BD138A30F4000F30F5008F31C327843137
:1008B0000230F4000030F5008F31C92784314E0139
:1008C000161610307E01A00011307D01CB0008000B
:1008D000873149278431DD30F4000330F5008F3152
:1008E000CF278431E830F4000430F5008F31C92778
:1008F00084312130F4000530F5008F31C327843175
:100900008B170B172C304001B2009030B3008631AA
:10091000C826843116304001B2009030B3008631D1
:10092000C82684318531932584314101E50065086D
:100930004001EB0066084101E5006508E600400162
:10094000E60141016608803171208431922C8031AA
:1009500043284E0199125A30F4000530F5008F31CA
:10096000B72784314E011912A630F4000630F50085
:100970008F31BD278431083042019F0090309D00A7
:1009800024309E0019309B009C018930F4000F3008
:10099000F5008F31AB278431A130F4000F30F50022
:1009A0008F31B12784319D30F4000F30F5008F3145
:1009B000A52784314001ED01F901F8010830A000BC
:1009C0002008EF00F701F601EE014E01991608002C
:1009D00041013C0840016202F00041013D08400134
:1009E000633BF10041013E084001643BF2004101DC
:1009F0003F084001653BF3007308031D0B2D72088F
:100A0000031D0B2D7108031D0B2D97307002031C65
:100A10000A2D0B2D202D400165084101BF0040012A
:100A200064084101BE00400163084101BD0040016E
:100A300062084101BC000230F00070084001E6008D
:100A400008004101380840016202F0004101390804
:100A50004001633BF10041013A084001643BF20070
:100A600041013B084001653BF3007308031D442D21
:100A70007208031D442D7108031D442D9730700228
:100A8000031C432D442D592D400165084101BB0035
:100A9000400164084101BA00400163084101B90006
:100AA000400162084101B8000330F00070084001C5
:100AB000E60008007708A03E860087018101420118
:100AC0001D1D632D642D6F2D7708A03E86008701C4
:100AD0008114410151088A0050080A008531420101
:100AE0009D1C732D742D7F2D7708A03E86008701F5
:100AF000011541014F088A004E080A008531770828
:100B0000A03E8600870101080319872D882D8F2DAF
:100B100041014D088A004C080A008531922D873129
:100B2000022785310800013087316E27853174082E
:100B3000013E4001AD000030753DAE002D08AF0014
:100B40002E08B000B101B2013208A4003108A300A0
:100B50003008A2002F08A1000030A8000030A70034
:100B60000030A6006430A5008531C92585314001DB
:100B70002108B3002208B4002308B5002408B600F9
:100B80000A30B636B50CB40CB30C890BC12D330842
:100B9000080000304001AC000030AB000030AA007B
:100BA0000030A900211CD52DD62DDE2D2508A90742
:100BB0002608AA3D2708AB3D2808AC3D0130A535E5
:100BC000A60DA70DA80D890BDF2D0130A436A30CAF
:100BD000A20CA10C890BE62D240823042204210475
:100BE000031DF32DF42DD22D2C08A4002B08A300F7
:100BF0002A08A2002908A10008004001CF004B08E4
:100C0000D1004A08D0004101C401C5011B2E50305B
:100C1000CD004D08C0004C08CE004E08C1004F0862
:100C200082318D228531400140084101C4074001D5
:100C300041084101C53D400150088400510885002C
:100C40001200031D242E252E072E410145084001C8
:100C5000CB00410144084001CA0008004001B00136
:100C6000B101452E2F08AC00AD012C08A1002D08C4
:100C7000A2002B08AE002E08A300833194238631F6
:100C800001304001B0070030B13D29083007840031
:100C90002A08313D85000008AC002C08AF002F0861
:100CA000031D532E542E322E3108AA003008A900FD
:100CB0000800F50040016F0803195F2E602E5A2EC0
:100CC0004E01191A642E652E692E750842019A008C
:100CD000802E19127508F4007908B03E860087014D
:100CE000740881000130F4007408F90708307902B3
:100CF000031C7B2E7C2E7D2EF90101304001EF027A
:100D00004E011916080057346F3472346B3469344D
:100D10006E3467345F345334683461346C346C340B
:100D20006F34773448346934733474346F347234C4
:100D30007934503473346534753464346F347334B7
:100D40007434613474346534313400340830400113
:100D50006F020318AC2EAD2EC52E7808B03E86006B
:100D60008701010842019A000130F0007008F8077D
:100D700008307802031CBD2EBE2EBF2EF8010130B4
:100D8000F00070084001EF07C72E4E01191208004D
:100D90004001B401B40A3308AA003208A900AB012B
:100DA00086312E2686314001AA1BD72ED82EE62E5C
:100DB0000A30A1000030A200A301833194238631C0
:100DC0004001A21BE42EE52EE62EB40108007508B2
:100DD0004001A2007408A100F12E0130F407003098
:100DE000F53D74088400750885001200031DF92E76
:100DF000FA2EED2E400121087402F4002208753B02
:100E0000F500080042011908F0007708A83E8600A6
:100E10008701700881000130F0007008F707083082
:100E20007702031C142F152F162FF7010130F00045
:100E300070084001EE07080042018E018F01900109
:100E40009101920193018D0141019E019B019C0141
:100E500094019501960197019A0199011F3098001C
:100E60008430930064309D000800403040019F00B2
:100E700018309D009C014E018C1296160330F40030
:100E80000030F5008F31CF278731893040019E0037
:100E900008008F31EF2787318431262487318F3145
:100EA000F727873187311C278731873135278731ED
:100EB0008431A9248731080054304001D8005808F3
:100EC000D9005308CB005208CA005930D80058083E
:100ED000CC0000308531FD25873108004001A0009D
:100EE000200841019E009317131313141318792F30
:100EF0007A2F762F0D08F5000C08F40008007E010B
:100F00003F1F832F842F872F8731BE2787317E0194
:100F1000BF1F8B2F8C2F8F2F8731AF278731080072
:100F2000223490340034903483348634283490341E
:100F30000F348834053488341C34903408348834B1
:100F40004E018C124101520853040319A82FA92FF6
:100F5000AE2F53088A0052080A0087310800410169
:100F6000540855040319B52FB62FBB2F55088A0016
:100F700054080A0087317E01BF130800410156085A
:100F800057040319C42FC52FCA2F57088A005608C3
:100F90000A0087317E013F130800243465343A3457
:100FA000253473342C3473343A34253473340A348E
:100FB000003465347634533431345034723465340B
:100FC00073347334653464340034653476345334A4
:100FD0003234503472346534733473346534643469
:100FE0000034083490340F349034D9348734E534E5
:100FF0008734FB34873465347634543469346D3443
:1010000065346F3475347434003452346534643468
:10101000593465346C346C346F3477340034503464
:101020006F347434443465346C346134793400344E
:101F120008000800400118120800400118160800C5
:101F22004001981208004001981608004001181359
:101F32000800400118170800873102278F31080076
:101F420042011D121D16080075084101CD007408DA
:101F5200CC00080075084101D1007408D0000800C7
:101F620075084101CF007408CE00080075084101D0
:101F7200D9007408D800080075084101DB00740814
:101F8200DA00080075084101D7007408D60008007D
:101F920075084101D5007408D40008007508410194
:101FA200D3007408D2000800640080010131890B5B
:101FB200D62F0034FE0012001E00FE0BDC2F003470
:101FC2004001A0002008863159268F3108002834AC
:101FD2006E3475346C346C34293400344F019601FC
:101FE2009701980199019A019B0108006230510101
:101FF2008D008F0191010230930092010800573445
:102002006F3472346B3469346E346734003465343F
:1020120076344E346F346E3465340034653476343D
:102022005434693463346B340034243469346E3488
:1020320069347434003447347234653465346E3430
:1020420000345F3469346E34693474340034523489
:0A2052006534643400342434003493
:020000040001F9
:0A000E00EC3FFF3F9F3FFF3FFF3F25
:00000001FF
