:020000040000FA
:0400000080314328E0
:100008007E1480314E01961E0A280B2813288C1E58
:100018000E280F2813288631AC2680314128161E59
:10002800162817281F280C1E1A281B281F28863157
:100038009B26803141280B1F222823284128191E7E
:100048002628272832280F1E2A282B283228410143
:1000580059088A0058080A0080314128991E352815
:10006800362841288F1E39283A2841284101570847
:100078008A0056080A00803141287E100900803124
:1000880045282A30840087308500DB308600003020
:100098008700073087315F278031F601F701F801C3
:1000A800F90162308400003085000E308731652701
:1000B8008031A0308400003085002A3087316527E0
:1000C8008031203084000130850020308731652759
:1000D80080317E1040018331672B4001B900DB304D
:1000E8008600003087002E308400003085000730FD
:1000F800AB0016001A00AB0B7D282A08BB002908A4
:10010800BA003A083B04031D8A288B288F282E3012
:10011800BA000030BB003B08F5003A08F40086310D
:100128000326803175084001BF007408BE004101F4
:1001380049084001BD00410148084001BC00BD1B01
:10014800A628A728BB283D08803AAB003F08803A7C
:100158002B02031DB1283E083C02031CB428B52815
:10016800B628BB2840013D08BF003C08BE0040013E
:100178003F08BD003E08BC00410147084001B800E7
:10018800410146084001B7006618CB28CC28EC2866
:10019800DE2820304001A1000030A2003908AB0061
:1001A8002B08A3008231DC22803101304001BE07D8
:1001B8000030BF3D3F08803AAB003808803A2B0238
:1001C800031DE82837083E02031CEB28EC28CD283D
:1001D8004001B501B6010C2940013A0884003B08EA
:1001E80085000008AB00AC012B08A1002C08A20078
:1001F8003908AD002D08A3008231DC22803101309E
:100208004001BA070030BB3D0130B5070030B63DAC
:100218003608803AAB003D08803A2B02031D1629A8
:100228003C083502031C19291A29F0284001661CCC
:100238001E291F293F29312920304001A100003003
:10024800A2003908AB002B08A3008231DC228031E0
:1002580001304001BE070030BF3D3F08803AAB0087
:100268003808803A2B02031D3B2937083E02031C3D
:100278003E293F29202940013F08AA003E08A9003D
:1002880008004001C900400886008701403FC200BD
:10029800413FC30042088400430885001200253A04
:1002A800031D57295829D4294008860087010130A1
:1002B800810741310318810A4101C601C701400184
:1002C800E601E701FF304101C800FF30C9004001E5
:1002D800400886008701403FC200413FC3004208F2
:1002E8008400430885001200733A031D7C297D2988
:1002F8009F29400886008701013081074131031892
:10030800810A4108860087010108840085010230BE
:100318008107003FC700013FC8004808AA004708F6
:10032800A900490880317120813140012A08C100A3
:100338002908C000F729400886008701403FC2000D
:10034800413FC30042088400430885001200253A53
:10035800031DAF29B029C92940088600870101304B
:10036800810741310318810A2530A1000030A2001D
:100378004908C2004208A3008231DC2281310130E1
:100388004001C0000030C100F729400886008701FD
:100398000130810741310318810AC001C101F729E1
:1003A800400886008701403FC200413FC300420821
:1003B8008400430885000008C400C5014408A10062
:1003C8004508A2004908C6004608A3008231DC227D
:1003D80081314001400886008701013081074131A1
:1003E8000318810AC32908004001E100632A40017B
:1003F800E901E90A8731B62781318731B027813190
:100408008731A72781317A2A8731B6278131873109
:10041800B02781318731A727813140016103031D4E
:10042800162A172A7A2A8731B62781318731AD27CC
:1004380081318731A72781314001ED01ED0A023072
:100448004101E20062084001E9007A2A40016D0397
:10045800031D2F2A302A3B2A6103031D342A352A1B
:100468003B2A03304101E20062084001E9006D08BF
:10047800031D3F2A402A7A2A6103031D442A452A7C
:100488007A2AE901E90A7A2A8731B3278131873143
:10049800B02781318731AA27813140016103031DCB
:1004A800562A572A7A2A8731B62781318731AD27CC
:1004B80081318731AA2781314001ED01232A69085A
:1004C8004101E200E3016308003A03196C2A7A2A21
:1004D8006208003A0319FB29013A0319082A033A6A
:1004E80003192A2A013A0319482A7A2A4001690875
:1004F8004101E20062084001DA0061088231862287
:10050800813108004001E00060086B06031D8D2A58
:100518008E2A942A5A086A060319932A942ADB2AEF
:100528006008031D982A992A9F2A5A086A060319FF
:100538009E2A9F2AD22A60080319A32AA42AB42A29
:100548006008DB00DC01DB35DC0DFD305B07840077
:1005580086305C3D8500003FDE00013FDF00B82AA1
:10056800E430DE008630DF00D930D2008630D30098
:100578005F08D5005E08D4005A08DB00DC01DB35D3
:10058800DC0D1A305B07840087305C3D8500003F36
:10059800D600013FD70086317826823140015A08BB
:1005A800DB005B08EA006008DB005B08EB00080082
:1005B800400123080319E12AE22AE72A2308031D38
:1005C800E62AE72AEC2A21088731462782311C2BA4
:1005D8002308033E86008701160001040319F52A43
:1005E800F62A132B2308033E86008701403FA40008
:1005F800413FA500230A86008701403FA600413FEE
:10060800A7002708803AA8002508803A2802031D79
:100618000F2B240826020318122B132B1C2B400126
:10062800230A860087010130810741310318810AB6
:1006380040012108A400A5012408A1002508A20062
:1006480008004001960197019801FF309100FF30A2
:1006580092000E309300FD307E01CE00FF30C300C3
:100668003F30B800E501C401B901CF01BA01C501A5
:10067800D001FF30BB00FF30C600FF30D100FF3093
:10068800BC00FF30C700FF30D200E8013F13BF13A2
:100698003E17BE173D13BD13BD30F4000730F500FB
:1006A800873177278331BC30F4000730F500873174
:1006B800712783314E01161610307E01A0001130CB
:1006C8007D01CB000800863165268331E930F400CE
:1006D8000330F50087316B2783312730F40004306D
:1006E800F5008731712783316030F4000430F5005C
:1006F8008731772783318B170B17B9304001B20048
:100708008730B3008531E42583314D304001B20094
:100718008730B3008531E42583318431D224833195
:100728004101E40064084001EC0068084101E4006C
:100738006408E5004001E801410165088131F821BC
:100748008331912B803143284E0199129930F4005E
:100758000430F5008731832783314E011912C230E6
:10076800F4000530F50087317D27833108304201D8
:100778009F0090309D0024309E0019309B009C0102
:10078800BE30F4000730F50087318F2783319F3062
:10079800F4000730F500873189278331A330F4004E
:1007A8000730F5008731952783314001EE01F901C3
:1007B800F8010830A00020084101DA00F701F6012D
:1007C8004001EF014E019916080001304001E2078F
:1007D8000030E33D0030E43D0030E53D4101400894
:1007E80040016202F000410141084001633BF10011
:1007F800410142084001643BF200410143084001C5
:10080800653BF3007308031D142C7208031D142C98
:10081800E93070020330713B031C132C142C262C76
:100828004001E801E80A65084101C3004001640885
:100838004101C200400163084101C1004001620852
:100848004101C000080041013C0840016202F0007B
:1008580041013D084001633BF10041013E08400170
:10086800643BF20041013F084001653BF300730817
:10087800031D4A2C7208031D4A2C7108031D4A2CBB
:1008880097307002031C492C4A2C5F2C40016508E4
:100898004101BF00400164084101BE0040016308F6
:1008A8004101BD00400162084101BC000230F00076
:1008B80070084001E8000800410138084001620260
:1008C800F000410139084001633BF10041013A0859
:1008D8004001643BF20041013B084001653BF300E5
:1008E8007308031D832C7208031D832C7108031DD4
:1008F800832C97307002031C822C832C982C400187
:1009080065084101BB00400164084101BA0040018B
:1009180063084101B900400162084101B800033091
:10092800F00070084001E80008007708A03E860043
:100938008701810142011D1DA22CA32CAE2C770832
:10094800A03E86008701811441014F088A004E08A5
:100958000A00843142019D1CB22CB32CBE2C7708AE
:10096800A03E86008701011541014D088A004C0808
:100978000A0084317708A03E860087010108031920
:10098800C62CC72CCE2C41014B088A004A080A0005
:100998008431D12C86311E268431080001308631FD
:1009A8008A2684317408013E4001AD000030753D4F
:1009B800AE002D08AF002E08B000B101B201320818
:1009C800A4003108A3003008A2002F08A1000030BD
:1009D800A8000030A7000030A6006430A5008531CB
:1009E8000825843140012108B3002208B4002308F7
:1009F800B5002408B6000A30B636B50CB40CB30CF2
:100A0800890B002D3308080000304001AC0000308D
:100A1800AB000030AA000030A900211C142D152DB0
:100A28001D2D2508A9072608AA3D2708AB3D28083B
:100A3800AC3D0130A535A60DA70DA80D890B1E2DBF
:100A48000130A436A30CA20CA10C890B252D240877
:100A5800230422042104031D322D332D112D2C08CB
:100A6800A4002B08A3002A08A2002908A100080056
:100A78004001CF004B08D1004A08D0004101C40111
:100A8800C5015A2D5030CD004D08C0004C08CE008D
:100A98004E08C1004F088131452185314001400889
:100AA8004101C407400141084101C53D40015008CA
:100AB8008400510885001200031D632D642D462D06
:100AC800410145084001CB00410144084001CA00EA
:100AD80008004001B001B101842D2F08AC00AD0120
:100AE8002C08A1002D08A2002B08AE002E08A30098
:100AF8008231DC22853101304001B0070030B13D40
:100B08002908300784002A08313D85000008AC0018
:100B18002C08AF002F08031D922D932D712D31083D
:100B2800AA003008A9000800F50041015A08031975
:100B38009E2D9F2D992D4E01191AA32DA42DA82D58
:100B4800750842019A00BF2D19127508F40079083A
:100B5800B03E86008701740881000130F4007408F3
:100B6800F90708307902031CBA2DBB2DBC2DF901F9
:100B780001304101DA024E0119160800083041011E
:100B88005A020318C82DC92DE12D7808B03E8600F9
:100B98008701010842019A000130F0007008F80747
:100BA80008307802031CD92DDA2DDB2DF80101302D
:100BB800F00070084101DA07E32D4E011912080010
:100BC8004001B401B40A3308AA003208A900AB01F5
:100BD80085316D2585314001AA1BF32DF42D022E98
:100BE8000A30A1000030A200A3018231DC22853145
:100BF8004001A21B002E012E022EB4010800750828
:100C08004001A2007408A1000D2E0130F407003045
:100C1800F53D74088400750885001200031D152E23
:100C2800162E092E400121087402F4002208753B93
:100C3800F500080042011908F0007708A83E860070
:100C48008701700881000130F0007008F70708304C
:100C58007702031C302E312E322EF7010130F000BE
:100C680070084001EF07080042018E018F019001D2
:100C78009101920193018D0141019E019B019C010B
:100C880094019501960197019A0199011F309800E6
:100C98008430930064309D000800403040019F007C
:100CA80018309D009C014E018C129616BB30F40042
:100CB8000730F50087316B278631893040019E0067
:100CC80008008731222786318331252386318731F1
:100CD800112786318631382686318631512686316C
:100CE8008331A8238631080054304001D8005808C1
:100CF800D9005308CB005208CA005930D800580808
:100D0800CC00003085313C25863108004001A00028
:100D1800200841019E009317131313141318952EDE
:100D2800962E922E0D08F5000C08F40008007E019E
:100D38003F1F9F2EA02EA32E8631CA2686317E0104
:100D4800BF1FA72EA82EAB2E8631BB2686310800E2
:100D58004E018C124101500851040319B42EB52ECE
:100D6800BA2E51088A0050080A008631080041014D
:100D7800520853040319C12EC22EC72E53088A00E5
:100D880052080A0086317E01BF1308004101540849
:100D980055040319D02ED12ED62E55088A00540892
:100DA8000A0086317E013F130800243465343A3442
:100DB800253473342C3473343A34253473340A3478
:100DC80000346534763453343134503472346534F5
:100DD800733473346534643400346534763453348E
:100DE8003234503472346534733473346534643453
:100DF80000343134873438348734E5348634F13478
:100E080086340734873465347634543469346D3421
:100E180065346F34753474340034623051018D0098
:100E28008F019101023093009201080059348734F0
:100E38009B3487343F348734533487344F019601C9
:100E48009701980199019A019B01080028346E3492
:100E580075346C346C3429340034653476344E344B
:100E68006F346E3465340034653476345434693400
:100E780063346B340034593465346C346C346F34F7
:100E8800773400344001A000200885319825873147
:100E98000800243469346E346934743400344734B7
:100EA8007234653465346E3400345F3469346E34BA
:100EB800693474340034FE0012001E00FE0B602FEB
:100EC8000034640080010131890B662F00347508F5
:100ED8004101D1007408D000080075084101D30011
:100EE8007408D200080075084101D5007408D400C0
:100EF800080075084101D9007408D8000800750871
:100F08004101D7007408D600080075084101CD00DA
:100F18007408CC00080075084101CF007408CE00A1
:100F2800080075084101CB007408CA000800523453
:100F380065346434003442011D121D1608008631E0
:100F48001E268731080040011817080040011813B1
:100F58000800400198160800400198120800400156
:100F6800181608004001181208002434003408003C
:060F78000800080008005B
:020000040001F9
:0A000E00EC3FFF3F9F3FFF3FFF3F25
:00000001FF
