:020000040000FA
:1000000080314328080008007E1480314E01961E7E
:100010000A280B2813288C1E0E280F281328873136
:10002000F12780314128161E162817281F280C1E7C
:100030001A281B281F288F31DE27803141280B1FEB
:10004000222823284128191E2628272832280F1E57
:100050002A282B28322841015B088A005A080A0006
:1000600080314128991E3528362841288F1E39288D
:100070003A284128410159088A0058080A0080316D
:1000800041287E10090080314528A83084008F3037
:100090008500DC3086000030870007308F319B27D9
:1000A0008031F601F701F801F90162308400003077
:1000B00085000D308F3195278031A03084000030CD
:1000C00085002C308F31952780312030840001301D
:1000D000850020308F31952780317E10400184319A
:1000E000922C4001E100EB294001E801E80A1D2AB9
:1000F000400167084101E30063084001E8001D2A50
:100100000430E30063084001E80003306106031D8A
:100110008A288B281D2A03304101E300630840012F
:10012000E8001D2A0930E30063084001E8000330BD
:100130006106031D9C289D281D2A02304101E30011
:1001400063084001E8001D2A8F314B2780318F3131
:10015000512780318F315A278031033040016106A9
:10016000031DB328B428C02803304101E30063080D
:100170004001E80004304101E30063084001E7006A
:1001800032306B020318C528C628D1286103031D2D
:10019000CA28CB28D12805304101E300630840017B
:1001A000E80032306B02031CD628D7281D2A6103D1
:1001B000031DDB28DC281D2A06304101E30063080B
:1001C0004001E8001D2A033040016106031DE928B3
:1001D000EA28F62803304101E30063084001E80003
:1001E00005304101E30063084001E7000230610689
:1001F000031DFB28FC281D2ADC288F314B2780316A
:100200008F31542780318F315A278031033040019C
:100210006106031D0C290D29192903304101E30052
:1002200063084001E80006304101E3006308400133
:10023000E7006103031D1D291E291D2A0730410106
:10024000E30063084001E8001D2A8F314E2780310A
:100250008F31512780318F31572780310330400152
:100260006106031D34293529412903304101E3008A
:1002700063084001E80007304101E30063084001E2
:10028000E7006103031D452946291D2A0830410165
:10029000E30063084001E8001D2A8F314B278031BD
:1002A0008F31542780318F315727803103304001FF
:1002B0006106031D5C295D29692903304101E300C2
:1002C00063084001E80008304101E3006308400191
:1002D000E7006103031D6D296E291D2A04304101C9
:1002E000E30063084001E8001D2A8F314B2780316D
:1002F0008F31542780318F315727803103304001AF
:100300006106031D842985298B2902304101E30000
:1003100063084001E8006103031D8F2990291D2A0D
:100320000A304101E30063084001E8001D2A033060
:1003300040016106031D9D299E29A4290230410127
:10034000E30063084001E8006103031DA829A9290F
:100350001D2A0B304101E30063084001E8001D2A1B
:100360008F314B2780318F31512780318F31572783
:100370008031033040016106031DBF29C029C62911
:1003800002304101E30063084001E8006103031DFE
:10039000CA29CB291D2A0C304101E3006308400122
:1003A000E8001D2A033040016106031DD829D92920
:1003B000DF2902304101E30063084001E8006103E6
:1003C000031DE329E4291D2A09304101E3006308E4
:1003D0004001E8001D2A68084101E300E4016408C7
:1003E000003A0319F4291D2A6308003A03197428F6
:1003F000013A03198028033A03197828013A0319AE
:100400009228073A0319A428013A0319E328033A6A
:100410000319FD28013A031925290F3A03194D291B
:10042000013A03197529033A03199729013A031967
:10043000B029073A0319D2291D2A40016808410151
:10044000E30063084001DA0061088331B1238031A1
:1004500008004001B900DC308600003087002E30F3
:100460008400003085000730AB0016001A00AB0B8B
:10047000352A2A08BB002908BA003A083B04031DA4
:10048000422A432A472A2E30BA000030BB003B08DC
:10049000F5003A08F4008731502782317508400191
:1004A000BF007408BE00410149084001BD00410180
:1004B00048084001BC00BD1B5E2A5F2A732A3D0824
:1004C000803AAB003F08803A2B02031D692A3E08A0
:1004D0003C02031C6C2A6D2A6E2A732A40013D08D7
:1004E000BF003C08BE0040013F08BD003E08BC0004
:1004F000410147084001B800410146084001B700EA
:1005000041014A18842A852AA62A972A20304001C8
:10051000A1000030A2003908AB002B08A3008431F1
:100520000724823101304001BE070030BF3D400149
:100530003F08803AAB003808803A2B02031DA22AFC
:1005400037083E02031CA52AA62A862A4001B501C7
:10055000B601C62A40013A0884003B08850000081D
:10056000AB00AC012B08A1002C08A2003908AD009B
:100570002D08A30084310724823101304001BA07DD
:100580000030BB3D0130B5070030B63D3608803A3B
:10059000AB003D08803A2B02031DD02A3C083502EF
:1005A000031CD32AD42AAA2A41014A1CD82AD92AB0
:1005B000FA2AEB2A20304001A1000030A2003908BD
:1005C000AB002B08A30084310724823101304001A5
:1005D000BE070030BF3D40013F08803AAB003808FD
:1005E000803A2B02031DF62A37083E02031CF92A23
:1005F000FA2ADA2A40013F08AA003E08A9000800AA
:100600004001C900400886008701403FC200413FC9
:10061000C30042088400430885001200253A031DE8
:10062000122B132B8D2B4008860087010130810788
:1006300041310318810A4101C601C701CA01CB013A
:10064000FF30C800FF30C900400140088600870124
:10065000403FC200413FC300420884004308850078
:100660001200733A031D352B362B582B4008860099
:1006700087010130810741310318810A4108860052
:10068000870101088400850102308107003FC7000F
:10069000013FC8004808AA004708A900490882315C
:1006A0002922833140012A08C1002908C000B02B4B
:1006B000400886008701403FC200413FC300420816
:1006C0008400430885001200253A031D682B692B1E
:1006D000822B4008860087010130810741310318D1
:1006E000810A2530A1000030A2004908C20042085A
:1006F000A30084310724833101304001C000003061
:10070000C100B02B400886008701013081074131CC
:100710000318810AC001C101B02B4008860087017F
:10072000403FC200413FC3004208840043088500A7
:100730000008C400C5014408A1004508A2004908FA
:10074000C6004608A30084310724833140014008D5
:10075000860087010130810741310318810A7C2B13
:1007600008004001E00060086A06031DB82BB92BA1
:10077000BF2B5A0869060319BE2BBF2B062C600835
:10078000031DC32BC42BCA2B5A0869060319C92B96
:10079000CA2BFD2B60080319CE2BCF2BDF2B600853
:1007A000DB00DC01DB35DC0D24305B07840090309E
:1007B0005C3D8500003FDE00013FDF00E32B0B3096
:1007C000DE009030DF000030D2009030D3005F08B0
:1007D000D5005E08D4005A08DB00DC01DB35DC0DF7
:1007E0006B305B07840087305C3D8500003FD6009E
:1007F000013FD7008731DF27833140015A08DB00F2
:100800005B08E9006008DB005B08EA0008004001C3
:10081000230803190C2C0D2C122C2308031D112C5A
:10082000122C172C21088F31A1278431472C230843
:10083000033E86008701160001040319202C212C99
:100840003E2C2308033E86008701403FA400413F21
:10085000A500230A86008701403FA600413FA7006C
:100860002708803AA8002508803A2802031D3A2C60
:100870002408260203183D2C3E2C472C4001230A55
:10088000860087010130810741310318810A400148
:100890002108A400A5012408A1002508A200080041
:1008A0004001960197019801FF309100FF309200BE
:1008B0000E309300FD307E01CE00FF30C3003F308C
:1008C000B800E501C401B901CF01BA01C501D001E9
:1008D000FF30BB00FF30C600FF30D100FF30BC004E
:1008E000FF30C700FF30D200E8013F13BF133E17AF
:1008F000BE173D13BD134A30F4000F30F5008F31A1
:10090000832784310230F4000030F5008F318927CD
:1009100084314E01161610307E01A00011307D0189
:10092000CB0008008731CC2784311230F400053029
:10093000F5008F318F2784315130F4000530F500F8
:100940008F31892784318A30F4000530F5008F31EA
:10095000832784318B170B17A0304001B2009030F1
:10096000B3008731312784318A304001B2009030A2
:10097000B3008731312784318531FC258431410131
:10098000E50065084001EB0066084101E5006508E7
:10099000E6004001E60141016608803171208431A2
:1009A000BC2C803143284E019912C330F40005302D
:1009B000F5008F31772784314E0119120F30F40082
:1009C0000730F5008F317D278431083042019F00C8
:1009D00090309D0024309E0019309B009C014930CE
:1009E000F4000F30F5008F316B2784316130F40053
:1009F0000F30F5008F31712784315D30F4000F30F6
:100A0000F5008F31652784314001ED01F901F801CE
:100A10000830A0002008EF00F701F601EE014E01BA
:100A20009916080001304001E2070030E33D003034
:100A3000E43D0030E53D4101400840016202F00024
:100A4000410141084001633BF1004101420840017E
:100A5000643BF200410143084001653BF300730829
:100A6000031D3D2D7208031D3D2DE930700203303A
:100A7000713B031C3C2D3D2D502D4001650841016B
:100A8000C300400164084101C20040016308410104
:100A9000C100400162084101C0004001E601E60AD0
:100AA000080041013C0840016202F00041013D089C
:100AB0004001633BF10041013E084001643BF2000C
:100AC00041013F084001653BF3007308031D742D8D
:100AD0007208031D742D7108031D742D9730700268
:100AE000031C732D742D892D400165084101BF0041
:100AF000400164084101BE00400163084101BD009E
:100B0000400162084101BC000230F0007008400161
:100B1000E60008004101380840016202F00041018E
:100B200039084001633BF10041013A084001643B50
:100B3000F20041013B084001653BF3007308031DCF
:100B4000AD2D7208031DAD2D7108031DAD2D97301D
:100B50007002031CAC2DAD2DC22D40016508410172
:100B6000BB00400164084101BA0040016308410133
:100B7000B900400162084101B8000330F00070087C
:100B80004001E60008007708A03E86008701810149
:100B900042011D1DCC2DCD2DD82D7708A03E8600FD
:100BA00087018114410151088A0050080A008531EB
:100BB00042019D1CDC2DDD2DE82D7708A03E86002E
:100BC0008701011541014F088A004E080A0085314E
:100BD0007708A03E8600870101080319F02DF12D4A
:100BE000F82D41014D088A004C080A008531FB2D83
:100BF000873185278531080001308F31EF27853116
:100C00007408013E4001AD000030753DAE002D0876
:100C1000AF002E08B000B101B2013208A4003108C3
:100C2000A3003008A2002F08A1000030A800003067
:100C3000A7000030A6006430A50086313226853139
:100C400040012108B3002208B4002308B50024089D
:100C5000B6000A30B636B50CB40CB30C890B2A2E8C
:100C60003308080000304001AC000030AB00003019
:100C7000AA000030A900211C3E2E3F2E472E250839
:100C8000A9072608AA3D2708AB3D2808AC3D01303E
:100C9000A535A60DA70DA80D890B482E0130A43649
:100CA000A30CA20CA10C890B4F2E240823042204B0
:100CB0002104031D5C2E5D2E3B2E2C08A4002B0866
:100CC000A3002A08A2002908A10008004001CF00C3
:100CD0004B08D1004A08D0004101C401C501842E4F
:100CE0005030CD004D08C0004C08CE004E08C10069
:100CF0004F08833100238631400140084101C40779
:100D0000400141084101C53D40015008840051089F
:100D100085001200031D8D2E8E2E702E4101450878
:100D20004001CB00410144084001CA0008004001D5
:100D3000B001B101AE2E2F08AC00AD012C08A1000E
:100D40002D08A2002B08AE002E08A3008431072432
:100D5000863101304001B0070030B13D290830072D
:100D600084002A08313D85000008AC002C08AF0043
:100D70002F08031DBC2EBD2E9B2E3108AA00300863
:100D8000A9000800F50040016F080319C82EC92EFC
:100D9000C32E4E01191ACD2ECE2ED22E7508420129
:100DA0009A00E92E19127508F4007908B03E860001
:100DB0008701740881000130F4007408F9070830D5
:100DC0007902031CE42EE52EE62EF90101304001E4
:100DD000EF024E011916080057346F3472346B3429
:100DE00069346E3467345F345334683461346C343E
:100DF0006C346F34773448346934733474346F34FA
:100E000072347934503473346534753464346F34E7
:100E100073347434613474346534323400340830DB
:100E200040016F020318152F162F2E2F7808B03EA1
:100E300086008701010842019A000130F000700825
:100E4000F80708307802031C262F272F282FF801D7
:100E50000130F00070084001EF07302F4E011912E9
:100E600008004001B401B40A3308AA003208A900FE
:100E7000AB018631972687314001AA1B402F412FB5
:100E80004F2F0A30A1000030A200A30184310724B3
:100E900087314001A21B4D2F4E2F4F2FB401080068
:100EA00075084001A2007408A1005A2F0130F40710
:100EB0000030F53D74088400750885001200031D9C
:100EC000622F632F562F400121087402F40022087C
:100ED000753BF50008009634903466349034EC3459
:100EE00086345E3490349C3490345534903442349B
:100EF000903490349034453490344C3490346E3483
:100F000090342E3490347534903442011908F00036
:100F10007708A83E86008701700881000130F00044
:100F20007008F70708307702031C972F982F992F26
:100F3000F7010130F00070084001EE07080042019F
:100F40008E018F0190019101920193018D01410168
:100F50009E019B019C0194019501960197019A01C4
:100F600099011F3098008430930064309D00080080
:100F7000403040019F0018309D009C014E018C12B2
:100F800096160330F4000030F5008F318F2787313B
:100F9000893040019E0008008F31AF2787318431AE
:100FA000502487318F31B727873187319F27873189
:100FB0008731B82787318431D324873108005430F2
:100FC0004001D8005808D9005308CB005208CA0085
:100FD0005930D8005808CC00003086316626873159
:100FE00008004E018C124101520853040319F92FD5
:100FF000FA2FFF2F53088A0052080A008731080091
:101E92000800080040011812080040011816080046
:101EA20040019812080040019816080040011813DA
:101EB2000800400118170800873185278F31080074
:101EC20042011D121D16080075084101CD0074085B
:101ED200CC00080075084101D1007408D000080048
:101EE20075084101CF007408CE0008007508410151
:101EF200D9007408D800080075084101DB00740895
:101F0200DA00080075084101D7007408D6000800FD
:101F120075084101D5007408D40008007508410114
:101F2200D3007408D2000800640080010131890BDB
:101F3200962F0034FE0012001E00FE0B9C2F003470
:101F42004001A00020088631C2268F3108002834C3
:101F52006E3475346C346C34293400344F0196017C
:101F62009701980199019A019B0108006230510181
:101F72008D008F019101023093009201080041010E
:101F8200560857040319C62FC72FCC2F57088A00AB
:101F920056080A008F317E013F13080041015408A0
:101FA20055040319D52FD62FDB2F55088A00540864
:101FB2000A008F317E01BF1308007E013F1FE22F0E
:101FC200E32FE62F8F31C0278F317E01BF1FEA2F0B
:101FD200EB2FEE2F8F31CF278F3108004001A00069
:101FE200200841019E009317131313141318FA2F9C
:101FF200FB2FF72F0D08F5000C08F400080024341D
:1020020065343A34253473342C3473343A342534F9
:1020120073340A34003465347634533431345034F2
:102022007234653473347334653464340034653423
:1020320076345334323450347234653473347334F6
:102042006534643400347C349034833490340C34FA
:1020520090341834903438349034593465346C34B4
:102062006C346F3477344F346634663400346534FC
:102072007634543469346D3465346F347534743461
:102082000034523465346434593465346C346C34FD
:102092006F3477340034593465346C346C346F34B3
:1020A20077344F346E34003450346F3474344434E3
:1020B20065346C34613479340034533465347234A9
:1020C2007634693463346534003457346F3472348F
:1020D2006B3469346E3467340034443475346D348F
:1020E2006D34793431340034443475346D346D34A4
:1020F200793432340034653476344E346F346E348D
:1021020065340034653476345434693463346B3462
:102112000034243469346E346934743400344734FE
:102122007234653465346E3400345F3469346E342D
:1021320069347434003452346534643400342434E1
:02214200003467
:020000040001F9
:0A000E00EC3FFF3F9F3FFF3FFF3F25
:00000001FF
