:020000040000FA
:0400000080314328E0
:100008007E1480314E01961E0A280B2813288C1E58
:100018000E280F28132886310B2680314128161EFA
:10002800162817281F280C1E1A281B281F28853158
:10003800FA25803141280B1F222823284128191E20
:100048002628272832280F1E2A282B283228410143
:1000580053088A0052080A0080314128991E352821
:10006800362841288F1E39283A284128410151084D
:100078008A0050080A00803141287E10090080312A
:1000880045289530840086308500D43086000030BD
:10009800870007308631D9268031F601F701F8014B
:1000A800F90162308400003085000D308631DF268A
:1000B8008031A03084000030850024308631DF266E
:1000C8008031203084000130850020308631DF26E1
:1000D80080317E10400183314D2B4001B900D4306E
:1000E8008600003087002E308400003085000730FD
:1000F800AB0016001A00AB0B7D282A08BB002908A4
:10010800BA003A083B04031D8A288B288F282E3012
:10011800BA000030BB003B08F5003A08F40085310E
:100128006225803175084001BF007408BE0065086B
:10013800BD006408BC00BD1BA228A328B7283D0841
:10014800803AAB003F08803A2B02031DAD283E08D9
:100158003C02031CB028B128B228B72840013D084A
:10016800BF003C08BE0040013F08BD003E08BC007F
:100178006308B8006208B7006618C328C428E428D2
:10018800D62820304001A1000030A2003908AB0079
:100198002B08A3008231C222803101304001BE0702
:1001A8000030BF3D3F08803AAB003808803A2B0248
:1001B800031DE02837083E02031CE328E428C5286D
:1001C8004001B501B601042940013A0884003B0802
:1001D80085000008AB00AC012B08A1002C08A20088
:1001E8003908AD002D08A3008231C22280310130C8
:1001F8004001BA070030BB3D0130B5070030B63DBD
:100208003608803AAB003D08803A2B02031D0E29C0
:100218003C083502031C11291229E8284001661CF4
:10022800162917293729292920304001A100003033
:10023800A2003908AB002B08A3008231C22280310A
:1002480001304001BE070030BF3D3F08803AAB0097
:100258003808803A2B02031D332937083E02031C55
:1002680036293729182940013F08AA003E08A90065
:1002780008004001C900400886008701403FC200CD
:10028800413FC30042088400430885001200253A14
:10029800031D4F295029C8294008860087010130CD
:1002A800810741310318810AE201E301E601E70110
:1002B800FF30E400FF30E500400886008701403F3A
:1002C800C200413FC3004208840043088500120071
:1002D800733A031D70297129932940088600870104
:1002E8000130810741310318810A410886008701DE
:1002F80001088400850102308107003FC700013FE3
:10030800C8004808AA004708A90049088031712098
:10031800813140012A08C1002908C000EB294008A2
:1003280086008701403FC200413FC3004208840065
:10033800430885001200253A031DA329A429BD29D5
:100348004008860087010130810741310318810A7E
:100358002530A1000030A2004908C2004208A300CD
:100368008231C222813101304001C0000030C10019
:10037800EB294008860087010130810741310318C5
:10038800810AC001C101EB29400886008701403F6E
:10039800C200413FC30042088400430885000008AA
:1003A800C400C5014408A1004508A2004908C600C8
:1003B8004608A3008231C2228131400140088600EC
:1003C80087010130810741310318810AB7290800E4
:1003D8004001E100462A4001E901E90A87312C275A
:1003E800813187312627813187311D278131602A64
:1003F800023040016106031D022A032A602A0230E6
:100408004101DB005B084001E90087312C2781317D
:1004180087312327813187311D278131602A0230B6
:1004280040016106031D192A1A2A602A0330410176
:10043800DB005B084001E9008731292781318731DA
:1004480026278131873120278131602A02304001F7
:100458006106031D302A312A602A04304101DB007D
:100468005B084001E90087312C2781318731232738
:100478008131262A023040016106031D442A452A9B
:10048800602AEF2969084101DB00DC015C08003AB9
:1004980003194F2A602A5B08003A0319EF29013A29
:1004A8000319FC29033A0319132A013A03192A2AC2
:1004B800073A03193E2A602A400169084101DB0016
:1004C8005B084001DA00610882316C228131080042
:1004D8004001E00060086B06031D732A742A7A2A1B
:1004E8005A086A060319792A7A2AC12A6008031D5C
:1004F8007E2A7F2A852A5A086A060319842A852AA9
:10050800B82A60080319892A8A2A9A2A6008DB000F
:10051800DC01DB35DC0D66305B07840086305C3D32
:100528008500003FDE00013FDF009E2A4330DE00E9
:100538008630DF003830D2008630D3005F08D5001F
:100548005E08D4005A08DB00DC01DB35DC0D5C30CA
:100558005B07840086305C3D8500003FD600013F84
:10056800D7008531D725823140015A08DB005B0866
:10057800EA006008DB005B08EB0008004001230884
:100588000319C72AC82ACD2A2308031DCC2ACD2A35
:10059800D22A21088631C6268231022B2308033E3F
:1005A80086008701160001040319DB2ADC2AF92AD0
:1005B8002308033E86008701403FA400413FA50071
:1005C800230A86008701403FA600413FA70027086D
:1005D800803AA8002508803A2802031DF52A240835
:1005E80026020318F82AF92A022B4001230A86005A
:1005F80087010130810741310318810A4001210830
:10060800A400A5012408A1002508A20008004001B3
:10061800960197019801FF309100FF3092000E304B
:100628009300FD307E01CE00FF30C3003F30B8009C
:10063800E501C401B901CF01BA01C501D001FF30FC
:10064800BB00FF30C600FF30D100FF30BC00FF30D8
:10065800C700FF30D200E8013F13BF133E17BE1793
:100668003D13BD133330F4000730F5008631F12611
:1006780083313230F4000730F5008631EB268331C0
:100688004E01161610307E01A00011307D01CB00FE
:1006980008008531C42583317A30F4000630F5002E
:1006A8008631E5268331CC30F4000430F5008631FC
:1006B800EB2683313430F4000730F5008631F1261B
:1006C80083318B170B172F304001B2008730B300EE
:1006D800853143258331CD304001B2008630B300E7
:1006E8008531432583318431062483314101DD007E
:1006F8005D084001EC0068084101DD005D08DE008E
:100708004001E80141015E088131EC218331772BFA
:10071800803143284E019912CD30F4000330F500A2
:100728008631FD2683314E0119122130F40005303F
:10073800F5008631F7268331083042019F0090305A
:100748009D0024309E0019309B009C013530F40038
:100758000730F5008731092783311530F400073059
:10076800F5008731032783311930F4000730F5008D
:1007780087310F2783314001ED01F901F801083075
:10078800A0002008EF00F701F601EE014E019916CE
:1007980008007708A03E86008701810142011D1DDF
:1007A800D62BD72BE22B7708A03E86008701811431
:1007B800410149088A0048080A00833142019D1C0A
:1007C800E62BE72BF22B7708A03E86008701011560
:1007D800410147088A0046080A0083317708A03E8D
:1007E8008600870101080319FA2BFB2B022C410113
:1007F80045088A0044080A008431052C85317D2586
:100808008331080001308531E92584317408013EBF
:100818004001AD000030753DAE002D08AF002E0838
:10082800B000B101B2013208A4003108A3003008B9
:10083800A2002F08A1000030A8000030A700003057
:10084800A6006430A50084313C248431400121088D
:10085800B3002208B4002308B5002408B6000A3003
:10086800B636B50CB40CB30C890B342C330808001D
:1008780000304001AC000030AB000030AA0000306E
:10088800A900211C482C492C512C2508A907260809
:10089800AA3D2708AB3D2808AC3D0130A535A60D7B
:1008A800A70DA80D890B522C0130A436A30CA20C5D
:1008B800A10C890B592C2408230422042104031DAC
:1008C800662C672C452C2C08A4002B08A3002A08AA
:1008D800A2002908A10008004001CF004B08D10060
:1008E8004A08D0004101C001C1018E2C5030CD0012
:1008F8004D08C0004C08CE004E08C1004F08813199
:100908003D218431400140084101C00740014108B0
:100918004101C13D40015008840051088500120082
:10092800031D972C982C7A2C410141084001CB00DB
:10093800410140084001CA0008004001B001B1016E
:10094800B82C2F08AC00AD012C08A1002D08A2007E
:100958002B08AE002E08A3008231C2228431013058
:100968004001B0070030B13D2908300784002A084B
:10097800313D85000008AC002C08AF002F08031D8E
:10098800C62CC72CA52C3108AA003008A9000800DD
:10099800410138083C02F00039083D3BF1003A08B3
:1009A8003E3BF2003B083F3BF3007308031DE82C75
:1009B8007208031DE82C7108031DE82C973070029B
:1009C800031CE72CE82CF62C41013F08BB003E082D
:1009D800BA003D08B9003C08B8000230F0007008C1
:1009E8004001E8000800F50040016F080319FD2CDC
:1009F800FE2CF82C4E01191A022D032D072D75080F
:100A080042019A001E2D19127508F4007908B03EAB
:100A180086008701740881000130F4007408F90722
:100A280008307902031C192D1A2D1B2DF9010130EC
:100A38004001EF024E0119160800083040016F020C
:100A48000318272D282D402D7808B03E86008701F1
:100A5800010842019A000130F0007008F8070830D8
:100A68007802031C382D392D3A2DF8010130F00099
:100A780070084001EF07422D4E011912080040018D
:100A8800B401B40A3308AA003208A900AB018431C2
:100A9800A12485314001AA1B522D532D612D0A3006
:100AA800A1000030A200A3018231C2228531400199
:100AB800A21B5F2D602D612DB4010800750840014F
:100AC800A2007408A1006C2D0130F4070030F53D38
:100AD80074088400750885001200031D742D752D97
:100AE800682D400121087402F4002208753BF500C6
:100AF800080042011908F0007708A83E860087011F
:100B0800700881000130F0007008F707083077029C
:100B1800031C8F2D902D912DF7010130F0007008E6
:100B28004001EE07080042018E018F0190019101FA
:100B3800920193018D0141019E019B019C01940149
:100B48009501960197019A0199011F309800843008
:100B5800930064309D000800403040019F00183029
:100B68009D009C014E018C1296163130F40007301E
:100B7800F5008631E5268531893040019E00080060
:100B880086318D26853183310B2385318631842644
:100B980085318531972585318531B025853183317A
:100BA8008E238531080054304001D8005808D900F8
:100BB8005308CB005208CA005930D8005808CC0056
:100BC800003084317024853108004001A0002008DD
:100BD80041019E009317131313141318F42DF52DC8
:100BE800F12D0D08F5000C08F40008007E013F1FE8
:100BF800FE2DFF2D022E8631292685317E01BF1F4D
:100C0800062E072E0A2E86311A26853108004E0137
:100C18008C1241014A084B040319132E142E192E65
:100C28004B088A004A080A008631080041014C082E
:100C38004D040319202E212E262E4D088A004C081B
:100C48000A0086317E01BF13080041014E084F0497
:100C580003192F2E302E352E4F088A004E080A0011
:100C680086317E013F130800243465343A34253434
:100C780073342C3473343A34253473340A340034DE
:100C880065347634533431345034723465347334C3
:100C98007334653464340034653476345334323410
:100CA80050347234653473347334653464340034C6
:100CB800D33486349C348634A3348634AA348634B8
:100CC800B1348634B8348634BF34863444348634F8
:100CD8005034863470348634653476345434693408
:100CE8006D3465346F347534743400340130410127
:100CF800BC070030BD3D0030BE3D0030BF3D0800A0
:100D0800623051018D008F019101023093009201F0
:100D180008004F0196019701980199019A019B01DA
:100D2800080028346E3475346C346C34293400343B
:100D38005334743461347434653431340034533486
:100D48007434613474346534323400345334743454
:100D58006134743465343334003453347434613456
:100D68007434653434340034653476344E346F3436
:100D78006E346534003465347634543469346334FD
:100D88006B3400344001A00020088431F7248631F8
:100D98000800243469346E346934743400345F34A0
:100DA80069346E34693474340034FE0012001E0055
:100DB800FE0BDA2E0034640080010131890BE02E2D
:100DC800003475084101CB007408CA000800750892
:100DD8004101CD007408CC00080075084101CF001E
:100DE8007408CE00080075084101D3007408D200C9
:100DF800080075084101D1007408D0000800750882
:100E08004101C7007408C600080075084101C900FF
:100E18007408C800080075084101C5007408C400BA
:100E2800080042011D121D16080085317D258731F5
:100E38000800400118170800400118130800400175
:100E4800981608004001981208004001181608007A
:100E58004001181208002434003408000800080073
:040E68000800080076
:020000040001F9
:0A000E00EC3FFF3F9F3FFF3FFF3F25
:00000001FF
