:020000040000FA
:0400000080314328E0
:100008007E1480314E01961E0A280B2813288C1E58
:100018000E280F28132886319A2680314128161E6B
:10002800162817281F280C1E1A281B281F28863157
:100038008926803141280B1F222823284128191E90
:100048002628272832280F1E2A282B283228410143
:1000580055088A0054080A0080314128991E35281D
:10006800362841288F1E39283A284128410153084B
:100078008A0052080A00803141287E100900803128
:1000880045282730840087308500D7308600003027
:1000980087000730873172278031F601F701F801B0
:1000A800F90162308400003085000E3087317827EE
:1000B8008031A030840000308500263087317827D1
:1000C8008031203084000130850020308731782746
:1000D80080317E10400183318D2B4001B900D7302B
:1000E8008600003087002E308400003085000730FD
:1000F800AB0016001A00AB0B7D282A08BB002908A4
:10010800BA003A083B04031D8A288B288F282E3012
:10011800BA000030BB003B08F5003A08F40085310E
:10012800F125803175084001BF007408BE00410107
:1001380045084001BD00410144084001BC00BD1B09
:10014800A628A728BB283D08803AAB003F08803A7C
:100158002B02031DB1283E083C02031CB428B52815
:10016800B628BB2840013D08BF003C08BE0040013E
:100178003F08BD003E08BC00410143084001B800EB
:10018800410142084001B7006618CB28CC28EC286A
:10019800DE2820304001A1000030A2003908AB0061
:1001A8002B08A30083310223803101304001BE07B0
:1001B8000030BF3D3F08803AAB003808803A2B0238
:1001C800031DE82837083E02031CEB28EC28CD283D
:1001D8004001B501B6010C2940013A0884003B08EA
:1001E80085000008AB00AC012B08A1002C08A20078
:1001F8003908AD002D08A300833102238031013076
:100208004001BA070030BB3D0130B5070030B63DAC
:100218003608803AAB003D08803A2B02031D1629A8
:100228003C083502031C19291A29F0284001661CCC
:100238001E291F293F29312920304001A100003003
:10024800A2003908AB002B08A300833102238031B8
:1002580001304001BE070030BF3D3F08803AAB0087
:100268003808803A2B02031D3B2937083E02031C3D
:100278003E293F29202940013F08AA003E08A9003D
:1002880008004001E100CD294001E901E90A873170
:10029800C52781318731BF2781318731B627813121
:1002A800ED2940016103031D5A295B29ED29063018
:1002B8004101DE005E084001E900ED2940016103CB
:1002C800031D67296829ED2903304101DE005E0816
:1002D8004001E9008731C22781318731BF27813149
:1002E8008731B9278131ED2940016103031D7D293B
:1002F8007E29ED2904304101DE005E084001E90055
:100308008731C52781318731BC2781317429400164
:100318006103031D90299129ED29482902304001E4
:100328006106031D98299929ED2902304101DE0053
:100338005E084001E9008731C52781318731BC2734
:1003480081318731B6278131ED29323040016C0285
:10035800031CAF29B029BF2902304101DE005E0825
:100368004001E9008731C52781318731BC278131B8
:100378008731B6278131323040016C020318C52914
:10038800C629ED2905304101DE005E084001E9007B
:10039800ED2969084101DE00DF015F08003A031911
:1003A800D629ED295E08003A03194829013A0319AC
:1003B8005529033A03196229013A03197829073A9A
:1003C80003198B29013A03199229033A0319A92918
:1003D800ED29400169084101DE005E084001DA00AC
:1003E80061088231AC22813108004001C90040080F
:1003F80086008701403FC200413FC3004208840095
:10040800430885001200253A031D0B2A0C2A882A66
:100418004008860087010130810741310318810AAD
:100428004101C201C3014001E601E701FF3041017A
:10043800C400FF30C5004001400886008701403FE6
:10044800C200413FC30042088400430885001200EF
:10045800733A031D302A312A532A4008860087013F
:100468000130810741310318810A4108860087015C
:1004780001088400850102308107003FC700013F61
:10048800C8004808AA004708A90049088031712017
:10049800813140012A08C1002908C000AB2A400860
:1004A80086008701403FC200413FC30042088400E4
:1004B800430885001200253A031D632A642A7D2A11
:1004C8004008860087010130810741310318810AFD
:1004D8002530A1000030A2004908C2004208A3004C
:1004E80083310223813101304001C0000030C10056
:1004F800AB2A400886008701013081074131031883
:10050800810AC001C101AB2A400886008701403F2B
:10051800C200413FC3004208840043088500000828
:10052800C400C5014408A1004508A2004908C60046
:100538004608A30083310223813140014008860028
:1005480087010130810741310318810A772A0800A1
:100558004001E00060086B06031DB32AB42ABA2ADA
:100568005A086A060319B92ABA2A012B6008031D1A
:10057800BE2ABF2AC52A5A086A060319C42AC52AE8
:10058800F82A60080319C92ACA2ADA2A6008DB008F
:10059800DC01DB35DC0DF9305B07840086305C3D1F
:1005A8008500003FDE00013FDF00DE2AE030DE008C
:1005B8008630DF00D530D2008630D3005F08D50002
:1005C8005E08D4005A08DB00DC01DB35DC0DC730DF
:1005D8005B07840086305C3D8500003FD600013F04
:1005E800D70086316626823140015A08DB005B0855
:1005F800EA006008DB005B08EB0008004001230804
:100608000319072B082B0D2B2308031D0C2B0D2B6F
:10061800122B210887315F278331422B2308033EA1
:10062800860087011600010403191B2B1C2B392B8C
:100638002308033E86008701403FA400413FA500F0
:10064800230A86008701403FA600413FA7002708EC
:10065800803AA8002508803A2802031D352B240873
:1006680026020318382B392B422B4001230A860017
:1006780087010130810741310318810A40012108AF
:10068800A400A5012408A1002508A2000800400133
:10069800960197019801FF309100FF3092000E30CB
:1006A8009300FD307E01CE00FF30C3003F30B8001C
:1006B800E501C401B901CF01BA01C501D001FF307C
:1006C800BB00FF30C600FF30D100FF30BC00FF3058
:1006D800C700FF30D200E8013F13BF133E17BE1713
:1006E8003D13BD13CC30F4000730F50087318A275D
:1006F8008331CB30F4000730F5008731842783310C
:100708004E01161610307E01A00011307D01CB007D
:1007180008008631532683310F30F4000430F50089
:1007280087317E2783314E30F4000430F50087315D
:1007380084278331CD30F4000730F50087318A27CC
:1007480083318B170B17C8304001B2008730B300D4
:100758008531D225833166304001B2008730B3003D
:100768008531D22583318431C02483314101E000B1
:1007780060084001EC0068084101E0006008E10001
:100788004001E80141016108813145218331B72BDE
:10079800803143284E0199128730F4000430F50067
:1007A8008731962783314E011912B030F400053095
:1007B800F500873190278331083042019F0090303F
:1007C8009D0024309E0019309B009C01CE30F4001F
:1007D8000730F5008731A2278331AE30F4000730A7
:1007E800F50087319C278331B230F4000730F500DB
:1007F8008731A82783314001EE01F901F80108305B
:10080800A00020084101D600F701F6014001EF01E0
:100818004E019916080001304001E2070030E33D1F
:100828000030E43D0030E53D41013C0840016202F2
:10083800F00041013D084001633BF10041013E08E1
:100848004001643BF20041013F084001653BF30071
:100858007308031D3A2C7208031D3A2CE930700204
:100868000330713B031C392C3A2C4D2C4001650890
:100878004101BF00400164084101BE004001630816
:100888004101BD00400162084101BC004001E8018E
:10089800E80A08004101380840016202F0004101FD
:1008A80039084001633BF10041013A084001643BCB
:1008B800F20041013B084001653BF3007308031D4A
:1008C800712C7208031D712C7108031D712C97304F
:1008D8007002031C702C712C862C400165084101A4
:1008E800BB00400164084101BA00400163084101AE
:1008F800B900400162084101B8000230F0007008F8
:100908004001E80008007708A03E860087018101C1
:1009180042011D1D902C912C9C2C7708A03E86002E
:100928008701811441014B088A004A080A00843172
:1009380042019D1CA02CA12CAC2C7708A03E86005F
:1009480087010115410149088A0048080A008431D5
:100958007708A03E8600870101080319B42CB52C3E
:10096800BC2C410147088A0046080A008431BF2C84
:1009780086310C268431080001308631782684318E
:100988007408013E4001AD000030753DAE002D08F1
:10099800AF002E08B000B101B2013208A40031083E
:1009A800A3003008A2002F08A1000030A8000030E2
:1009B800A7000030A6006430A5008431F6248431F5
:1009C80040012108B3002208B4002308B500240818
:1009D800B6000A30B636B50CB40CB30C890BEE2C45
:1009E8003308080000304001AC000030AB00003094
:1009F800AA000030A900211C022D032D0B2D25086B
:100A0800A9072608AA3D2708AB3D2808AC3D0130B8
:100A1800A535A60DA70DA80D890B0C2D0130A43600
:100A2800A30CA20CA10C890B132D24082304220467
:100A38002104031D202D212DFF2C2C08A4002B0898
:100A4800A3002A08A2002908A10008004001CF003D
:100A58004B08D1004A08D0004101C001C101482D0E
:100A68005030CD004D08C0004C08CE004E08C100E3
:100A78004F088131F9218531400140084101C00703
:100A8800400141084101C13D40015008840051081E
:100A980085001200031D512D522D342D41014108AE
:100AA8004001CB00410140084001CA000800400154
:100AB800B001B101722D2F08AC00AD012C08A100C6
:100AC8002D08A2002B08AE002E08A30083310223B4
:100AD800853101304001B0070030B13D29083007A9
:100AE80084002A08313D85000008AC002C08AF00BE
:100AF8002F08031D802D812D5F2D3108AA00300895
:100B0800A9000800F5004101560803198C2D8D2D08
:100B1800872D4E01191A912D922D962D7508420197
:100B28009A00AD2D19127508F4007908B03E8600B8
:100B38008701740881000130F4007408F90708304F
:100B48007902031CA82DA92DAA2DF9010130410114
:100B5800D6024E0119160800083041015602031842
:100B6800B62DB72DCF2D7808B03E86008701010835
:100B780042019A000130F0007008F8070830780246
:100B8800031CC72DC82DC92DF8010130F0007008CD
:100B98004101D607D12D4E01191208004001B401B8
:100BA800B40A3308AA003208A900AB0185315B25D5
:100BB80085314001AA1BE12DE22DF02D0A30A1005C
:100BC8000030A200A3018331022385314001A21B1A
:100BD800EE2DEF2DF02DB401080075084001A2009C
:100BE8007408A100FB2D0130F4070030F53D7408AE
:100BF8008400750885001200031D032E042EF72DAE
:100C0800400121087402F4002208753BF500080031
:100C180042011908F0007708A83E8600870170088D
:100C280081000130F0007008F70708307702031CD4
:100C38001E2E1F2E202EF7010130F00070084001F3
:100C4800EF07080042018E018F0190019101920186
:100C580093018D0141019E019B019C019401950125
:100C6800960197019A0199011F30980084309300EA
:100C780064309D000800403040019F0018309D00FE
:100C88009C014E018C129616CA30F4000730F5000C
:100C980087317E278631893040019E0008008731E0
:100CA8001F27863183314B238631873116278631BA
:100CB80086312626863186313F2686318331CE23FA
:100CC8008631080054304001D8005808D90053082C
:100CD800CB005208CA005930D8005808CC00003060
:100CE80085312A25863108004001A00020084101ED
:100CF8009E009317131313141318832E842E802E1B
:100D08000D08F5000C08F40008007E013F1F8D2E29
:100D18008E2E912E8631B82686317E01BF1F952EE4
:100D2800962E992E8631A926863108004E018C12FE
:100D380041014C084D040319A22EA32EA82E4D08DC
:100D48008A004C080A008631080041014E084F0409
:100D58000319AF2EB02EB52E4F088A004E080A0090
:100D680086317E01BF130800410150085104031960
:100D7800BE2EBF2EC42E51088A0050080A008631A4
:100D88007E013F1308006C3487342E3487343534A1
:100D980087343C348734433487340D3487345834AB
:100DA8008734243465343A34253473342C3473341A
:100DB8003A34253473340A34003465347634533481
:100DC8003134503472346534733473346534643474
:100DD80000346534763453343234503472346534E4
:100DE800733473346534643400344A34873451348A
:100DF8008734E1348634ED348634033487346534FB
:100E08007634543469346D3465346F3475347434DD
:100E180000345334743461347434653450346F346A
:100E280074340034623051018D008F019101023019
:100E38009300920108004F019601970198019901CA
:100E48009A019B01080028346E3475346C346C3474
:100E5800293400345334743461347434653431348F
:100E680000345334743461347434653432340034A7
:100E78005334743461347434653433340034533443
:100E880074346134743465343434003465347634FD
:100E98004E346F346E3465340034653476345434EB
:100EA800693463346B3400345034733465347534C6
:100EB80064346F3400344001A00020088531862551
:100EC80087310800243469346E346934743400344A
:100ED8005F3469346E34693474340034FE001200AF
:100EE8001E00FE0B732F0034640080010131890B52
:100EF800792F003475084101CD007408CC00080032
:100F080075084101CF007408CE000800750841013A
:100F1800D1007408D000080075084101D500740894
:100F2800D400080075084101D3007408D2000800F5
:100F380075084101C9007408C80008007508410116
:100F4800CB007408CA00080075084101C70074087E
:100F5800C600080042011D121D16080086310C2625
:100F680087310800400118170800400118130800CD
:100F78004001981608004001981208004001181610
:100F88000800400118120800243400340800080042
:060F98000800080008003B
:020000040001F9
:0A000E00EC3FFF3F9F3FFF3FFF3F25
:00000001FF
