:020000040000FA
:0400000080314328E0
:100008007E1480314E01961E0A280B2813288C1E58
:100018000E280F2813288631602680314128161EA5
:10002800162817281F280C1E1A281B281F28863157
:100038004F26803141280B1F222823284128191ECA
:100048002628272832280F1E2A282B283228410143
:1000580057088A0056080A0080314128991E352819
:10006800362841288F1E39283A2841284101550849
:100078008A0054080A00803141287E100900803126
:100088004528E030840086308500D830860000306E
:1000980087000730873124278031F601F701F801FE
:1000A800F90162308400003085000D3087312A273D
:1000B8008031A030840000308500283087312A271D
:1000C80080312030840001308500203087312A2794
:1000D80080317E1040018331552B4001B900D83062
:1000E8008600003087002E308400003085000730FD
:1000F800AB0016001A00AB0B7D282A08BB002908A4
:10010800BA003A083B04031D8A288B288F282E3012
:10011800BA000030BB003B08F5003A08F40085310E
:10012800B725803175084001BF007408BE00410141
:1001380045084001BD00410144084001BC00BD1B09
:10014800A628A728BB283D08803AAB003F08803A7C
:100158002B02031DB1283E083C02031CB428B52815
:10016800B628BB2840013D08BF003C08BE0040013E
:100178003F08BD003E08BC00410143084001B800EB
:10018800410142084001B7006618CB28CC28EC286A
:10019800DE2820304001A1000030A2003908AB0061
:1001A8002B08A3008231CA22803101304001BE07EA
:1001B8000030BF3D3F08803AAB003808803A2B0238
:1001C800031DE82837083E02031CEB28EC28CD283D
:1001D8004001B501B6010C2940013A0884003B08EA
:1001E80085000008AB00AC012B08A1002C08A20078
:1001F8003908AD002D08A3008231CA2280310130B0
:100208004001BA070030BB3D0130B5070030B63DAC
:100218003608803AAB003D08803A2B02031D1629A8
:100228003C083502031C19291A29F0284001661CCC
:100238001E291F293F29312920304001A100003003
:10024800A2003908AB002B08A3008231CA228031F2
:1002580001304001BE070030BF3D3F08803AAB0087
:100268003808803A2B02031D3B2937083E02031C3D
:100278003E293F29202940013F08AA003E08A9003D
:1002880008004001C900400886008701403FC200BD
:10029800413FC30042088400430885001200253A04
:1002A800031D57295829D4294008860087010130A1
:1002B800810741310318810A4101C201C30140018C
:1002C800E601E701FF304101C400FF30C5004001ED
:1002D800400886008701403FC200413FC3004208F2
:1002E8008400430885001200733A031D7C297D2988
:1002F8009F29400886008701013081074131031892
:10030800810A4108860087010108840085010230BE
:100318008107003FC700013FC8004808AA004708F6
:10032800A900490880317120813140012A08C100A3
:100338002908C000F729400886008701403FC2000D
:10034800413FC30042088400430885001200253A53
:10035800031DAF29B029C92940088600870101304B
:10036800810741310318810A2530A1000030A2001D
:100378004908C2004208A3008231CA2281310130F3
:100388004001C0000030C100F729400886008701FD
:100398000130810741310318810AC001C101F729E1
:1003A800400886008701403FC200413FC300420821
:1003B8008400430885000008C400C5014408A10062
:1003C8004508A2004908C6004608A3008231CA228F
:1003D80081314001400886008701013081074131A1
:1003E8000318810AC32908004001E1004E2A400190
:1003F800E901E90A8731772781318731712781310E
:10040800873168278131682A40016103031D0D2A5D
:100418000E2A682A02304101DF005F084001E90026
:1004280087317727813187316E2781318731682776
:100438008131682A40016103031D232A242A682A7E
:1004480003304101DF005F084001E900873174276C
:10045800813187317127813187316B278131682A52
:1004680040016103031D392A3A2A682A04304101F0
:10047800DF005F084001E900873177278131873144
:100488006E278131302A40016103031D4C2A4D2A11
:10049800682AFB2969084101DF00E0016008003A89
:1004A8000319572A682A5F08003A0319FB29013AF9
:1004B8000319082A033A03191E2A013A0319342A90
:1004C800073A0319472A682A400169084101DF00F1
:1004D8005F084001DA006108823174228131080026
:1004E8004001E00060086B06031D7B2A7C2A822AF3
:1004F8005A086A060319812A822AC92A6008031D34
:10050800862A872A8D2A5A086A0603198C2A8D2A70
:10051800C02A60080319912A922AA22A6008DB00DF
:10052800DC01DB35DC0DBB305B07840086305C3DCD
:100538008500003FDE00013FDF00A62A9830DE007C
:100548008630DF008D30D2008630D3005F08D500BA
:100558005E08D4005A08DB00DC01DB35DC0DB13065
:100568005B07840086305C3D8500003FD600013F74
:10057800D70086312C26823140015A08DB005B08FF
:10058800EA006008DB005B08EB0008004001230874
:100598000319CF2AD02AD52A2308031DD42AD52AFD
:1005A800DA2A21088731112782310A2B2308033ED2
:1005B80086008701160001040319E32AE42A012BA7
:1005C8002308033E86008701403FA400413FA50061
:1005D800230A86008701403FA600413FA70027085D
:1005E800803AA8002508803A2802031DFD2A24081D
:1005F80026020318002B012B0A2B4001230A860030
:1006080087010130810741310318810A400121081F
:10061800A400A5012408A1002508A20008004001A3
:10062800960197019801FF309100FF3092000E303B
:100638009300FD307E01CE00FF30C3003F30B8008C
:10064800E501C401B901CF01BA01C501D001FF30EC
:10065800BB00FF30C600FF30D100FF30BC00FF30C8
:10066800C700FF30D200E8013F13BF133E17BE1783
:100678003D13BD137E30F4000730F50087313C2769
:1006880083317D30F4000730F50087313627833118
:100698004E01161610307E01A00011307D01CB00EE
:1006A8000800863119268331D530F4000330F5006F
:1006B8008731302783311430F4000430F500873156
:1006C800362783317F30F4000730F50087313C2727
:1006D80083318B170B177A304001B2008730B30093
:1006E80085319825833118304001B2008730B30036
:1006F8008531982583318431862483314101E10095
:1007080061084001EC0068084101E1006108E2006D
:100718004001E801410162088131F82183317F2BD2
:10072800803143284E0199124D30F4000430F50011
:100738008731482783314E0119127630F40005308D
:10074800F500873142278331083042019F009030FD
:100758009D0024309E0019309B009C018030F400DD
:100768000730F5008731542783316030F4000730B3
:10077800F50087314E2783316430F4000730F500E7
:1007880087315A2783314001ED01F901F80108301A
:10079800A0002008EF00F701F601EE014E019916BE
:1007A800080001304001E2070030E33D0030E43D3D
:1007B8000030E53D41013C0840016202F000410182
:1007C8003D084001633BF10041013E084001643BA4
:1007D800F20041013F084001653BF3007308031D27
:1007E800002C7208031D002CE93070020330713BA5
:1007F800031CFF2B002C132C400165084101BF008E
:10080800400164084101BE00400163084101BD0088
:10081800400162084101BC004001E801E80A080003
:100828004101380840016202F000410139084001E5
:10083800633BF10041013A084001643BF200410189
:100848003B084001653BF3007308031D372C720811
:10085800031D372C7108031D372C97307002031CB9
:10086800362C372C4C2C400165084101BB00400157
:1008780064084101BA00400163084101B900400120
:1008880062084101B8000230F00070084001E80039
:1008980008007708A03E86008701810142011D1DDE
:1008A800562C572C622C7708A03E860087018114AD
:1008B80041014D088A004C080A00843142019D1C00
:1008C800662C672C722C7708A03E860087010115DC
:1008D80041014B088A004A080A0084317708A03E83
:1008E80086008701010803197A2C7B2C822C410190
:1008F80049088A0048080A008431852C8531D225A8
:1009080084310800013086313E2684317408013E66
:100918004001AD000030753DAE002D08AF002E0837
:10092800B000B101B2013208A4003108A3003008B8
:10093800A2002F08A1000030A8000030A700003056
:10094800A6006430A5008431BC248431400121080C
:10095800B3002208B4002308B5002408B6000A3002
:10096800B636B50CB40CB30C890BB42C330808009C
:1009780000304001AC000030AB000030AA0000306D
:10098800A900211CC82CC92CD12C2508A907260888
:10099800AA3D2708AB3D2808AC3D0130A535A60D7A
:1009A800A70DA80D890BD22C0130A436A30CA20CDC
:1009B800A10C890BD92C2408230422042104031D2B
:1009C800E62CE72CC52C2C08A4002B08A3002A0829
:1009D800A2002908A10008004001CF004B08D1005F
:1009E8004A08D0004101C001C1010E2D5030CD0090
:1009F8004D08C0004C08CE004E08C1004F08813198
:100A080045218431400140084101C00740014108A7
:100A18004101C13D40015008840051088500120081
:100A2800031D172D182DFA2C410141084001CB0058
:100A3800410140084001CA0008004001B001B1016D
:100A4800382D2F08AC00AD012C08A1002D08A200FC
:100A58002B08AE002E08A3008231CA22853101304E
:100A68004001B0070030B13D2908300784002A084A
:100A7800313D85000008AC002C08AF002F08031D8D
:100A8800462D472D252D3108AA003008A900080059
:100A9800F50040016F080319522D532D4D2D4E01BD
:100AA800191A572D582D5C2D750842019A00732D7F
:100AB80019127508F4007908B03E86008701740899
:100AC80081000130F4007408F90708307902031C2A
:100AD8006E2D6F2D702DF90101304001EF024E018E
:100AE80019160800083040016F0203187C2D7D2D6F
:100AF800952D7808B03E86008701010842019A00CA
:100B08000130F0007008F80708307802031C8D2DBA
:100B18008E2D8F2DF8010130F00070084001EF078D
:100B2800972D4E01191208004001B401B40A330888
:100B3800AA003208A900AB01853121258531400181
:100B4800AA1BA72DA82DB62D0A30A1000030A2009F
:100B5800A3018231CA2285314001A21BB42DB52DD3
:100B6800B62DB401080075084001A2007408A10060
:100B7800C12D0130F4070030F53D74088400750874
:100B880085001200031DC92DCA2DBD2D4001210865
:100B98007402F4002208753BF500080042011908A8
:100BA800F0007708A83E86008701700881000130B0
:100BB800F0007008F70708307702031CE42DE52DD4
:100BC800E62DF7010130F00070084001EE0708003B
:100BD80042018E018F0190019101920193018D01D3
:100BE80041019E019B019C01940195019601970189
:100BF8009A0199011F3098008430930064309D0059
:100C08000800403040019F0018309D009C014E01B3
:100C18008C1296167C30F4000730F50087313027A7
:100C28008631893040019E0008008631D8268631F9
:100C38008331132386318631CF2686318531EC25E1
:100C48008631863105268631833196238631080020
:100C580054304001D8005808D9005308CB00520836
:100C6800CA005930D8005808CC0000308431F0242C
:100C7800863108004001A000200841019E0093171A
:100C8800131313141318492E4A2E462E0D08F50077
:100C98000C08F40008007E013F1F532E542E572ED7
:100CA80086317E2686317E01BF1F5B2E5C2E5F2E2D
:100CB80086316F26863108004E018C1241014E089C
:100CC8004F040319682E692E6E2E4F088A004E08AD
:100CD8000A00863108004101500851040319752E95
:100CE800762E7B2E51088A0050080A0086317E0134
:100CF800BF1308004101520853040319842E852E9E
:100D08008A2E53088A0052080A0086317E013F1352
:100D18000800243465343A34253473342C3473345D
:100D28003A34253473340A34003465347634533411
:100D38003134503472346534733473346534643404
:100D48000034653476345334323450347234653474
:100D5800733473346534643400341E348734E734B0
:100D68008634EE348634F5348634FC3486340334E1
:100D780087340A34873499348634A5348634C534A4
:100D8800863465347634543469346D3465346F345C
:100D9800753474340034623051018D008F01910133
:100DA80002309300920108004F01960197019801C3
:100DB80099019A019B01080028346E3475346C340B
:100DC8006C342934003453347434613474346534E5
:100DD8003134003453347434613474346534323407
:100DE8000034533474346134743465343334003427
:100DF80053347434613474346534343400346534B1
:100E080076344E346F346E34653400346534763459
:100E18005434693463346B3400344001A000200832
:100E280085314C2587310800243469346E3469349F
:100E3800743400345F3469346E3469347434003483
:100E4800FE0012001E00FE0B252F003464008001F6
:100E58000131890B2B2F003475084101CF0074082C
:100E6800CE00080075084101D1007408D0000800C0
:100E780075084101D3007408D200080075084101C3
:100E8800D7007408D600080075084101D500740819
:100E9800D400080075084101CB007408CA00080096
:100EA80075084101CD007408CC000800750841019F
:100EB800C9007408C800080042011D121D16080068
:100EC8008531D225873108004001181708004001F4
:100ED80018130800400198160800400198120800ED
:100EE8004001181608004001181208002434003484
:0A0EF80008000800080008000800C8
:020000040001F9
:0A000E00EC3FFF3F9F3FFF3FFF3F25
:00000001FF
