:020000040000FA
:1000000080314328080008007E1480314E01961E7E
:100010000A280B2813288C1E0E280F281328873136
:10002000B62780314128161E162817281F280C1EB7
:100030001A281B281F288731A527803141280B1F2C
:10004000222823284128191E2628272832280F1E57
:100050002A282B283228410159088A0058080A000A
:1000600080314128991E3528362841288F1E39288D
:100070003A284128410157088A0056080A00803171
:1000800041287E10090080314528E83084008F30F7
:100090008500DB3086000030870007308F31DB279A
:1000A0008031F601F701F801F90162308400003077
:1000B00085000E308F31D5278031A030840000308C
:1000C00085002A308F31D5278031203084000130DF
:1000D000850020308F31D52780317E10400184315A
:1000E000582C4001E100B5294001E901E90AE42961
:1000F0000330E20062084001E90003306106031D9D
:1001000082288328E42902304101E200620840018C
:10011000E900E4290830E20062084001E900033008
:100120006106031D94289528E42974288F318B27B4
:1001300080318F31912780318F319A278031033080
:1001400040016106031DA528A628AC280230410104
:10015000E20062084001E90032306C02031CB12861
:10016000B228BD286103031DB628B728BD28053075
:100170004101E20062084001E90032306C020318DC
:10018000C228C328E4296103031DC728C828E4291D
:1001900004304101E20062084001E900E429033033
:1001A00040016106031DD528D628DC280230410114
:1001B000E20062084001E90002306106031DE12807
:1001C000E228E42905304101E20062084001E9002B
:1001D000E4298F318B2780318F31942780318F3103
:1001E0009A278031033040016106031DF828F92861
:1001F000FF2802304101E20062084001E90061038A
:10020000031D03290429E42906304101E2006208A4
:100210004001E900E4298F318E2780318F31912709
:1002200080318F3197278031033040016106031DF3
:100230001A291B29212902304101E20062084001EC
:10024000E9006103031D25292629E429073041011E
:10025000E20062084001E900E4298F318B278031F8
:100260008F31942780318F319727803103304001BF
:100270006106031D3C293D29432902304101E2006A
:1002800062084001E9006103031D47294829E42968
:1002900003304101E20062084001E900E4298F31A6
:1002A0008B2780318F31942780318F319727803190
:1002B000033040016106031D5E295F296129E901C0
:1002C000E90A6103031D65296629E4290930410112
:1002D000E20062084001E900E429033040016106C0
:1002E000031D732974297629E901E90A6103031DB5
:1002F0007A297B29E4290A304101E20062084001A1
:10030000E900E4298F318B2780318F3191278031AB
:100310008F3197278031033040016106031D9129F9
:1003200092299429E901E90A6103031D9829992971
:10033000E4290B304101E20062084001E900E429B0
:10034000033040016106031DA629A729A929E90157
:10035000E90A6103031DAD29AE29E42908304101F2
:10036000E20062084001E900E42969084101E20075
:10037000E3016308003A0319BE29E4296208003A40
:1003800003197428013A03197828033A03198A28B3
:10039000013A03199628073A0319CF28013A03199D
:1003A000E928033A03190B29013A03192D290F3AB9
:1003B00003194F29013A03196D29033A03198229B8
:1003C000013A0319A029E429400169084101E2002A
:1003D00062084001DA006108833177238031080028
:1003E0004001B900DB308600003087002E308400E9
:1003F000003085000730AB0016001A00AB0BFC295B
:100400002A08BB002908BA003A083B04031D092A40
:100410000A2A0E2A2E30BA000030BB003B08F50035
:100420003A08F4008631F526813175084001BF0095
:100430007408BE00410149084001BD00410148085F
:100440004001BC00BD1B252A262A3A2A3D08803AD5
:10045000AB003F08803A2B02031D302A3E083C02C5
:10046000031C332A342A352A3A2A40013D08BF00AA
:100470003C08BE0040013F08BD003E08BC004101F1
:1004800047084001B800410146084001B70066181E
:100490004A2A4B2A6B2A5D2A20304001A1000030F5
:1004A000A2003908AB002B08A3008331CD23813192
:1004B00001304001BE070030BF3D3F08803AAB002D
:1004C0003808803A2B02031D672A37083E02031CB6
:1004D0006A2A6B2A4C2A4001B501B6018B2A4001D9
:1004E0003A0884003B0885000008AB00AC012B08EB
:1004F000A1002C08A2003908AD002D08A30083310B
:10050000CD23813101304001BA070030BB3D0130BD
:10051000B5070030B63D3608803AAB003D08803A5A
:100520002B02031D952A3C083502031C982A992AA0
:100530006F2A4001661C9D2A9E2ABE2AB02A2030BE
:100540004001A1000030A2003908AB002B08A30035
:100550008331CD23813101304001BE070030BF3DE2
:100560003F08803AAB003808803A2B02031DBA2AB4
:1005700037083E02031CBD2ABE2A9F2A40013F08BD
:10058000AA003E08A90008004001C90040088600F2
:100590008701403FC200413FC30042088400430836
:1005A00085001200253A031DD62AD72A532B40086E
:1005B000860087010130810741310318810A41011A
:1005C000C601C7014001E601E701FF304101C80053
:1005D000FF30C9004001400886008701403FC2004B
:1005E000413FC30042088400430885001200733A6B
:1005F000031DFB2AFC2A1E2B4008860087010130C0
:10060000810741310318810A4108860087010108EA
:100610008400850102308107003FC700013FC80008
:100620004808AA004708A90049088131F021823111
:1006300040012A08C1002908C000762B4008860026
:100640008701403FC200413FC30042088400430885
:1006500085001200253A031D2E2B2F2B482B400816
:10066000860087010130810741310318810A253056
:10067000A1000030A2004908C2004208A300833153
:10068000CD23823101304001C0000030C100762B03
:100690004008860087010130810741310318810A33
:1006A000C001C101762B400886008701403FC2008F
:1006B000413FC30042088400430885000008C4008D
:1006C000C5014408A1004508A2004908C600460823
:1006D000A3008331CD238231400140088600870189
:1006E0000130810741310318810A422B0800400183
:1006F000E00060086B06031D7E2B7F2B852B5A08BC
:100700006A060319842B852BCC2B6008031D892BCB
:100710008A2B902B5A086A0603198F2B902BC32B18
:1007200060080319942B952BA52B6008DB00DC01D6
:10073000DB35DC0D07305B07840088305C3D8500CD
:10074000003FDE00013FDF00A92BEE30DE008730E6
:10075000DF00E330D2008730D3005F08D5005E08A9
:10076000D4005A08DB00DC01DB35DC0D43305B07CD
:10077000840087305C3D8500003FD600013FD700F4
:1007800087318227833140015A08DB005B08EA0089
:100790006008DB005B08EB00080040012308031938
:1007A000D22BD32BD82B2308031DD72BD82BDD2BF3
:1007B00021088F31E12783310D2C2308033E860069
:1007C0008701160001040319E62BE72B042C2308EC
:1007D000033E86008701403FA400413FA500230A55
:1007E00086008701403FA600413FA7002708803AC6
:1007F000A8002508803A2802031D002C24082602A0
:100800000318032C042C0D2C4001230A86008701B9
:100810000130810741310318810A40012108A400F9
:10082000A5012408A1002508A200080040019601A6
:1008300097019801FF309100FF3092000E30930035
:10084000FD307E01CE00FF30C3003F30B800E5012F
:10085000C401B901CF01BA01C501D001FF30BB000D
:10086000FF30C600FF30D100FF30BC00FF30C700B2
:10087000FF30D200E8013F13BF133E17BE173D13F0
:10088000BD138A30F4000F30F5008F31C327843157
:100890000230F4000030F5008F31C92784314E0159
:1008A000161610307E01A00011307D01CB0008002B
:1008B00087316F278431DA30F4000430F5008F314E
:1008C000CF2784311930F4000530F5008F31C92766
:1008D00084315230F4000530F5008F31C327843164
:1008E0008B170B1742304001B2009030B3008631B5
:1008F000D62684312C304001B2009030B3008631CE
:10090000D62684318531C42584314101E400640850
:100910004001EC0068084101E4006408E500400182
:10092000E80141016508803171208431822C8031D9
:1009300043284E0199128B30F4000530F5008F31B9
:10094000B72784314E011912B430F4000630F50097
:100950008F31BD278431083042019F0090309D00C7
:1009600024309E0019309B009C018930F4000F3028
:10097000F5008F31AB278431A130F4000F30F50042
:100980008F31B12784319D30F4000F30F5008F3165
:10099000A52784314001EE01F901F8010830A000DB
:1009A00020084101DA00F701F6014001EF014E0194
:1009B0009916080001304001E2070030E33D0030A5
:1009C000E43D0030E53D4101400840016202F00095
:1009D000410141084001633BF100410142084001EF
:1009E000643BF200410143084001653BF30073089A
:1009F000031D052D7208031D052DE930700203301B
:100A0000713B031C042D052D182D40016508410183
:100A1000C300400164084101C20040016308410174
:100A2000C100400162084101C0004001E801E80A3C
:100A3000080041013C0840016202F00041013D080C
:100A40004001633BF10041013E084001643BF2007C
:100A500041013F084001653BF3007308031D3C2D35
:100A60007208031D3C2D7108031D3C2D9730700248
:100A7000031C3B2D3C2D512D400165084101BF0059
:100A8000400164084101BE00400163084101BD000E
:100A9000400162084101BC000230F00070084001D2
:100AA000E80008004101380840016202F0004101FD
:100AB00039084001633BF10041013A084001643BC1
:100AC000F20041013B084001653BF3007308031D40
:100AD000752D7208031D752D7108031D752D973036
:100AE0007002031C742D752D8A2D4001650841018B
:100AF000BB00400164084101BA00400163084101A4
:100B0000B900400162084101B8000330F0007008EC
:100B10004001E80008007708A03E860087018101B7
:100B200042011D1D942D952DA02D7708A03E860015
:100B30008701811441014F088A004E080A0085315F
:100B400042019D1CA42DA52DB02D7708A03E860046
:100B50008701011541014D088A004C080A008531C2
:100B60007708A03E8600870101080319B82DB92D2A
:100B7000C02D41014B088A004A080A008531C32D67
:100B8000873110278531080001308731942785315E
:100B90007408013E4001AD000030753DAE002D08E7
:100BA000AF002E08B000B101B2013208A400310834
:100BB000A3003008A2002F08A1000030A8000030D8
:100BC000A7000030A6006430A5008531FA258531E4
:100BD00040012108B3002208B4002308B50024080E
:100BE000B6000A30B636B50CB40CB30C890BF22D36
:100BF0003308080000304001AC000030AB0000308A
:100C0000AA000030A900211C062E072E0F2E250851
:100C1000A9072608AA3D2708AB3D2808AC3D0130AE
:100C2000A535A60DA70DA80D890B102E0130A436F1
:100C3000A30CA20CA10C890B172E24082304220458
:100C40002104031D242E252E032E2C08A4002B087E
:100C5000A3002A08A2002908A10008004001CF0033
:100C60004B08D1004A08D0004101C401C5014C2EF7
:100C70005030CD004D08C0004C08CE004E08C100D9
:100C80004F088231C4228631400140084101C40727
:100C9000400141084101C53D400150088400510810
:100CA00085001200031D552E562E382E4101450891
:100CB0004001CB00410144084001CA000800400146
:100CC000B001B101762E2F08AC00AD012C08A100B7
:100CD0002D08A2002B08AE002E08A3008331CD23DF
:100CE000863101304001B0070030B13D290830079E
:100CF00084002A08313D85000008AC002C08AF00B4
:100D00002F08031D842E852E632E3108AA0030087B
:100D1000A9000800F50041015A080319902E912EF0
:100D20008B2E4E01191A952E962E9A2E7508420179
:100D30009A00B12E19127508F4007908B03E8600A9
:100D40008701740881000130F4007408F907083045
:100D50007902031CAC2EAD2EAE2EF90101304101FB
:100D6000DA024E0119160800083041015A02031830
:100D7000BA2EBB2ED32E7808B03E8600870101081C
:100D800042019A000130F0007008F807083078023C
:100D9000031CCB2ECC2ECD2EF8010130F0007008B4
:100DA0004101DA07D52E4E01191208004001B401A5
:100DB000B40A3308AA003208A900AB0186315F26C5
:100DC00086314001AA1BE52EE62EF42E0A30A10042
:100DD0000030A200A3018331CD2386314001A21B44
:100DE000F22EF32EF42EB401080075084001A20083
:100DF0007408A100FF2E0130F4070030F53D74089F
:100E00008400750885001200031D072F082FFB2E94
:100E1000400121087402F4002208753BF500080027
:100E200042011908F0007708A83E86008701700883
:100E300081000130F0007008F70708307702031CCA
:100E4000222F232F242FF7010130F00070084001DA
:100E5000EF07080042018E018F019001910192017C
:100E600093018D0141019E019B019C01940195011B
:100E7000960197019A0199011F30980084309300E0
:100E800064309D00080038349034083490340034C5
:100E900090343E34903438348834253488343234B5
:100EA0009034283488342F348834103490341134FA
:100EB000883417349034403040019F0018309D0032
:100EC0009C014E018C1296160330F4000030F500A0
:100ED0008F31CF278731893040019E0008008F3144
:100EE000EF2787318431162487318F31F7278731F7
:100EF00087312A27873187315B27873184319924CD
:100F00008731080054304001D8005808D9005308F0
:100F1000CB005208CA005930D8005808CC00003025
:100F200086312E26873108004001A00020084101AB
:100F30009E0093171313131413189F2FA02F9C2F89
:100F40000D08F5000C08F40008007E013F1FA92FD2
:100F5000AA2FAD2F8731D42787317E01BF1FB12F34
:100F6000B22FB52F8731C527873108004E018C126B
:100F70004101500851040319BE2FBF2FC42F51083F
:100F80008A0050080A0087310800410152085304C2
:100F90000319CB2FCC2FD12F53088A0052080A00F7
:100FA00087317E01BF13080041015408550403191D
:100FB000DA2FDB2FE02F55088A0054080A0087310A
:100FC0007E013F130800243465343A3425347334E9
:100FD0002C3473343A34253473340A340034653491
:100FE000763453343134503472346534733473345A
:100FF00065346434003465347634533432345034D8
:1010000072346534733473346534643400341E349C
:10101000903425349034EF348734FB3487341B34D8
:101020008834593465346C346C346F3477344F34CD
:1010300066346634003465347634543469346D343F
:1010400065346F3475347434003452346534643428
:10105000593465346C346C346F347734003459341B
:1010600065346C346C346F3477344F346E34003400
:1010700050346F347434443465346C3461347934AE
:0210800000343A
:101F120008000800400118120800400118160800C5
:101F22004001981208004001981608004001181359
:101F32000800400118170800873110278F31080068
:101F420042011D121D16080075084101CB007408DC
:101F5200CA00080075084101CF007408CE000800CD
:101F620075084101CD007408CC00080075084101D4
:101F7200D7007408D600080075084101D90074081A
:101F8200D800080075084101D5007408D400080083
:101F920075084101D3007408D20008007508410198
:101FA200D1007408D0000800640080010131890B5F
:101FB200D62F0034FE0012001E00FE0BDC2F003470
:101FC2004001A000200886318A268F31080028347B
:101FD2006E3475346C346C34293400344F019601FC
:101FE2009701980199019A019B0108006230510101
:101FF2008D008F0191010230930092010800533449
:102002006534723476346934633465340034573459
:102012006F3472346B3469346E3467340034443450
:1020220075346D346D34793431340034443475345C
:102032006D346D34793432340034653476344E3450
:102042006F346E3465340034653476345434693414
:1020520063346B340034243469346E346934743438
:10206200003447347234653465346E3400345F347E
:1020720069346E34693474340034523465346434EF
:0620820000342434003498
:020000040001F9
:0A000E00EC3FFF3F9F3FFF3FFF3F25
:00000001FF
