:020000040000FA
:1000000080314328080008007E1480314E01961E7E
:100010000A280B2813288C1E0E280F281328873136
:10002000822780314128161E162817281F280C1EEB
:100030001A281B281F2887317127803141280B1F60
:10004000222823284128191E2628272832280F1E57
:100050002A282B28322841015D088A005C080A0002
:1000600080314128991E3528362841288F1E39288D
:100070003A28412841015B088A005A080A00803169
:1000800041287E10090080314528A03084008F303F
:100090008500DF3086000030870007308F319327DE
:1000A0008031F801F901FA01FB01FC01FD01683022
:1000B00084000030850008308F318D278031A030DA
:1000C0008400003085002E308F318D278031203024
:1000D00084000130850020308F318D2780317E10E3
:1000E000400184316D2C4001E500000022290630DA
:1000F000E3006308E80042298F31732780318F3194
:10010000792780318F3182278031323040016B0274
:10011000031C8B288C28962804306506031D912823
:10012000922896280530E3006308E80032306B021D
:1001300003189B289C28422904306506031DA1282A
:10014000A22842290330E3006308E80042298F31E6
:10015000732780318F317C2780318F317F27803129
:10016000043040016506031DB628B7284229003037
:100170004001B1000030B0001F30AF004030AE0091
:100180008631BC2680314001E801E80A422902306C
:100190006506031DCC28CD2842290030B10000306F
:1001A000B0000330AF00E830AE008631BC268031AD
:1001B00005304001E3006308E80042298F317627CB
:1001C00080318F31792780318F317F278031043022
:1001D00040016506031DED28EE2842290030B100DC
:1001E0000030B0000330AF00E830AE008631BC26EE
:1001F000803102304001E3006308E80042298F317A
:10020000732780318F317C2780318F318227803175
:10021000043040016506031D0E290F2942290030D4
:10022000B1000030B0001330AF008830AE0086312E
:10023000BC26803104304001E3006308E800422915
:100240000000B72840016808E300E4016408003AB0
:1002500003192B2942296308003A03197728013A28
:1002600003197C28033A0319A728013A0319C72860
:10027000073A0319DE28013A0319FF28033A031944
:10028000202942296808E3006308DC0065088331FF
:100290008723803108004001BD00DF308600003038
:1002A000870030308400003085000730AD00160034
:1002B0001A00AD0B57292C08BC002B08BB003B08CB
:1002C0003C04031D6429652969293030BB000030D6
:1002D000BC003C08A1003B08A0008631D626813135
:1002E00040012108C1002008C00041014908400127
:1002F000BF00410148084001BE00BF1B8029812981
:1003000095293F08803AAD004108803A2D02031D2F
:100310008B2940083E02031C8E298F29902995299C
:1003200040013F08C1003E08C00040014108BF0035
:100330004008BE00410147084001BA00410146089B
:100340004001B90041014A18A629A729C829B9299D
:1003500020304001A3000030A4003D08AD002D086E
:10036000A5008331DD23813101304001C007003019
:10037000C13D40014108803AAD003A08803A2D0263
:10038000031DC42939084002031CC729C829A8290C
:100390004001B701B801E82940013B0884003C084E
:1003A00085000008AD00AE012D08A3002E08A400B2
:1003B0003D08AF002F08A5008331DD2381310130D6
:1003C0004001BB070030BC3D0130B7070030B83DED
:1003D0003808803AAD003F08803A2D02031DF2290B
:1003E0003E083702031CF529F629CC2941014A1C95
:1003F000FA29FB291C2A0D2A20304001A3000030D5
:10040000A4003D08AD002D08A5008331DD23813116
:1004100001304001C0070030C13D40014108803A31
:10042000AD003A08803A2D02031D182A390840020F
:10043000031C1B2A1C2AFC2940014108AC0040086F
:10044000AB0008004001CB00420886008701403F16
:10045000C400413FC50044088400450885001200DF
:10046000253A031D342A352AAF2A4208860087011F
:100470000130810741310318810A4101C601C701DA
:10048000CA01CB01FF30C800FF30C900400142085B
:1004900086008701403FC400413FC50044088400F6
:1004A000450885001200733A031D572A582A7A2AF4
:1004B0004208860087010130810741310318810A13
:1004C0004308860087010108840085010230810706
:1004D000003FC900013FCA004A08AC004908AB0010
:1004E0004B0881314B21823140012C08C3002B087D
:1004F000C200D22A420886008701403FC400413F23
:10050000C50044088400450885001200253A031DF3
:100510008A2A8B2AA42A4208860087010130810793
:1005200041310318810A2530A3000030A4004B0894
:10053000C4004408A5008331DD238231013040012D
:10054000C2000030C300D22A420886008701013071
:10055000810741310318810AC201C301D22A42082E
:1005600086008701403FC400413FC5004408840025
:10057000450885000008C600C7014608A3004708D3
:10058000A4004B08C8004808A5008331DD23823150
:10059000400142088600870101308107413103187C
:1005A000810A9E2A080000304001AC000030AB00F8
:1005B0000030AA000030A9002308220421042004EE
:1005C0000319E32AE42A252BAD01AD0AF22A0130F2
:1005D000A035A10DA20DA30D890BE82A0130A800BA
:1005E0002808AD07A31FF52AF62AE72A0130A93506
:1005F000AA0DAB0DAC0D890BF72A23082702031DAA
:100600000B2B22082602031D0B2B21082502031D9C
:100610000B2B20082402031C0E2B0F2B182B200859
:10062000A4022108A53B2208A63B2308A73B2914C6
:100630000130A336A20CA10CA00C890B192B0130A0
:10064000AD02031D242B252BF62A2C08A3002B0812
:10065000A2002A08A1002908A00008000130F8071C
:100660000030F93D0030FA3D0030FB3D41014008CB
:100670007802F0004108793BF10042087A3BF20031
:1006800043087B3BF3007308031D512B7208031DC5
:10069000512BE93070020330713B031C502B512B5E
:1006A000862B4101CC01CC0A40087802F0004108B9
:1006B000793BF10042087A3BF20043087B3BF300B0
:1006C00040016C08F400F501F601F70173087702A8
:1006D000031D742B72087602031D742B71087502BA
:1006E000031D742B700874020318772B782B7D2B55
:1006F0000430F00070084101CC007B084101C300C8
:100700007A08C2007908C1007808C00008004001DA
:10071000E20062086A06031D8E2B8F2B952B5C0866
:1007200069060319942B952BDC2B6208031D992B6A
:100730009A2BA02B5C08690603199F2BA02BD32BA7
:1007400062080319A42BA52BB52B6208DD00DE017E
:10075000DD35DE0DE1305D07840087305E3D8500CC
:10076000003FE000013FE100B92BC830E0008730D6
:10077000E100BD30D4008730D5006108D7006008A3
:10078000D6005C08DD00DE01DD35DE0DAF305D0733
:10079000840087305E3D8500003FD800013FD900CE
:1007A00087315F27833140015C08DD005D08E90087
:1007B0006208DD005D08EA00080040012508031911
:1007C000E22BE32BE82B2508031DE72BE82BED2B71
:1007D00023088F31992783311D2C2508033E86007D
:1007E0008701160001040319F62BF72B142C25089A
:1007F000033E86008701403FA600413FA700250A2F
:1008000086008701403FA800413FA9002908803A9F
:10081000AA002708803A2A02031D102C2608280265
:100820000318132C142C1D2C4001250A8600870167
:100830000130810741310318810A40012308A600D5
:10084000A7012608A3002708A40008004E0199125A
:10085000F5304001A0000430A1008F31CA27843157
:100860004E01191279304001A0000630A1008F31ED
:10087000D3278431083042019F0090309D002430FE
:100880009E0019309B009C0171304001A0000F3088
:10089000A1008F31B827843189304001A0000F308A
:1008A000A1008F31C127843185304001A0000F3075
:1008B000A1008F31AF2784314101CD014001EF010B
:1008C000EE010830A20022084101DE004001ED01E6
:1008D000FD01FC014E019916080087314C27843137
:1008E0002E304001A0000330A1008F31F727843162
:1008F00025304001A0000630A1008F31EE27843161
:100900004F304001A0000630A1008F31E52784312F
:100910008B170B172B304001B4009030B500863197
:100920009D26843115304001B4009030B5008631E9
:100930009D2684318531322584314001E6006608E8
:10094000EB0041014C084001E6006608E700410168
:10095000CC01400167088031732084319A2C8031AA
:1009600043284001960197019801FF309100FF3024
:1009700092000E309300FD307E01CE00FF30C300A8
:100980003F30B800E501C401B901CF01BA01C5018A
:10099000D001FF30BB00FF30C600FF30D100FF3078
:1009A000BC00FF30C700FF30D200E8013F13BF1387
:1009B0003E17BE173D13BD1372304001A0000F302B
:1009C000A1008F31E527843102304001A0000030C2
:1009D000A1008F31EE2784314E01161610307E01B2
:1009E000A00011307D01CB00080040016D08A03E41
:1009F00086008701810142011D1DFF2C002D0C2D59
:100A000040016D08A03E8600870181144101530812
:100A10008A0052080A00853142019D1C102D112DBB
:100A20001D2D40016D08A03E860087010115410182
:100A300051088A0050080A00853140016D08A03E27
:100A40008600870101080319262D272D2E2D41012F
:100A50004F088A004E080A008531312D8631F02674
:100A60008431080001308731382785314001200862
:100A7000013EAF000030213DB0002F08B10030082A
:100A8000B200B301B4013408A6003308A50032084F
:100A9000A4003108A3000030AA000030A9000030F3
:100AA000A8006430A70085316825853140012308FE
:100AB000B5002408B6002508B7002608B8000A309B
:100AC000B836B70CB60CB50C890B602D350808008C
:100AD00000304001AE000030AD000030AC0000300E
:100AE000AB00231C742D752D7D2D2708AB0728081E
:100AF000AC3D2908AD3D2A08AE3D0130A735A80D13
:100B0000A90DAA0D890B7E2D0130A636A50CA40CCB
:100B1000A30C890B852D2608250424042304031D1A
:100B2000922D932D712D2E08A6002D08A5002C08BE
:100B3000A4002B08A30008004001D1004D08D300F9
:100B40004C08D2004101C401C501BA2D5230CF007A
:100B50004F08C2004E08D0005008C300510882312F
:100B600022228531400142084101C4074001430867
:100B70004101C53D40015208840053088500120020
:100B8000031DC32DC42DA62D410145084001CD00F4
:100B9000410144084001CC0008004001A10041018E
:100BA0005E080319D42DD52DCF2D4E01191AD92D3C
:100BB000DA2DDF2D4001210842019A00F72D19128C
:100BC00040012108A0006F08B03E86008701200880
:100BD00081000130A0002008EF0708306F02031CDD
:100BE000F22DF32DF42DEF0101304101DE024E0113
:100BF000191608004001B201B301112E3108AE00F0
:100C0000AF012E08A3002F08A4002D08B000300863
:100C1000A5008331DD23853101304001B20700306A
:100C2000B33D2B08320784002C08333D85000008B3
:100C3000AE002E08B1003108031D1F2E202EFE2D00
:100C40003308AC003208AB00080041013C087802D0
:100C5000F0003D08793BF1003E087A3BF2003F0886
:100C60007B3BF3007308031D412E7208031D412EC8
:100C70007108031D412E97307002031C402E412E37
:100C80004E2E7B084101BF007A08BE007908BD00E6
:100C90007808BC000230F0007008CC000800410168
:100CA00038087802F0003908793BF1003A087A3BBD
:100CB000F2003B087B3BF3007308031D6B2E7208A8
:100CC000031D6B2E7108031D6B2E97307002031CE1
:100CD0006A2E6B2E782E7B084101BB007A08BA0081
:100CE0007908B9007808B8000330F0007008CC002B
:100CF0000800083041015E0203187F2E802E9A2ED4
:100D000040016E08B03E86008701010842019A004A
:100D10000130F00070084001EE0708306E02031C3D
:100D2000922E932E942EEE010130F00070084101B6
:100D3000DE079C2E4E01191208004001B601B60ACA
:100D40003508AC003408AB00AD018531FA25863199
:100D50004001AC1BAC2EAD2EBB2E0A30A3000030E0
:100D6000A400A5018331DD2386314001A41BB92EE7
:100D7000BA2EBB2EB601080000304001A30000309F
:100D8000A2000330A100E830A0003108A70030081D
:100D9000A6002F08A5002E08A4008231D322863198
:100DA00040012008B2003208EC0008004001210890
:100DB000A4002008A300E02E0130A0070030A13DD0
:100DC00020088400210885001200031DE82EE92E6A
:100DD000DC2E23082002A0002408213BA1000800EB
:100DE00042011908F00040016D08A83E8600870105
:100DF000700881000130F0007008ED0708306D02C6
:100E0000031C032F042F052FED010130F0007008A3
:100E1000FC07080042018E018F01900191019201AF
:100E200093018D0141019E019B019C01940195015B
:100E3000960197019A0199011F3098008430930020
:100E400064309D000800403040019F0018309D0034
:100E50009C014E018C12961603304001A000003018
:100E6000A1008F31F7278731893040019E000800AB
:100E70004001A200220841019E009317131313148E
:100E80001318432F442F402F0D084001A1004101AA
:100E90000C084001A00008008F31A727873184315A
:100EA000B12487318F31DC27873187310A27873199
:100EB0008731232787318431262487310800563033
:100EC0004001DA005A08DB005508CD005408CC0078
:100ED0005B30DA005A08CE00003085319C2587311E
:100EE00008007E013F1F752F762F792F8731A027AD
:100EF00087317E01BF1F7D2F7E2F812F8731912764
:100F0000873108004E018C12410154085504031921
:100F10008A2F8B2F902F55088A0054080A0087319A
:100F200008004101560857040319972F982F9D2F49
:100F300057088A0056080A0087317E01BF1308004F
:100F40004101580859040319A62FA72FAC2F59089F
:100F50008A0058080A0087317E013F1308002134B7
:100F6000903427349034F8348734FF3487341B347A
:100F70009034F534873400349034243465343A3472
:100F8000253473342C3473343A34253473340A34AE
:100F9000003465347634533431345034723465342B
:100FA00073347334653464340034653476345334C4
:100FB0003234503472346534733473346534643489
:100FC0000034073490340E349034C9348734D53427
:100FD0008734EB34873465347634543469346D3473
:100FE00065346F3475347434003452346534643489
:100FF000593465346C346C346F3477340034503485
:101000006F347434443465346C346134793400346E
:101EE20008000800400118120800400118160800F6
:101EF200400198120800400198160800400118138A
:101F020008004001181708008631F0268F310800BA
:101F120042011D121D160800640080010131890B67
:101F22008E2F0034FE0012001E00FE0B942F003490
:101F32004001A20022088531CD258F3108002834C6
:101F42006E3475346C346C34293400344F0196018C
:101F52009701980199019A019B010800400121080B
:101F62004101CF00400120084101CE00080040019C
:101F720021084101D300400120084101D20008009C
:101F8200400121084101D100400120084101D00057
:101F92000800400121084101DB0040012008410105
:101FA200DA000800400121084101DD00400120085B
:101FB2004101DC000800623051018D008F01910166
:101FC2000230930092010800400121084101D9002A
:101FD200400120084101D8000800400121084101C8
:101FE200D700400120084101D60008004001210825
:101FF2004101D500400120084101D40008005334BA
:102002007434613474346534303400346534763475
:102012004E346F346E34653400346534763454345F
:10202200693463346B340034243469346E34693473
:102032007434003447347234653465346E34003499
:102042005F3469346E346934743400345234653424
:0820520064340034243400342E
:020000040001F9
:0A000E00EC3FFF3F9F3FFF3FFF3F25
:00000001FF
